:1000000071C000008EC000008CC000008AC00000DB
:1000100088C0000098C0000084C0000082C00000BA
:1000200080C000007EC000007CC000007AC00000DC
:1000300078C0000076C0000074C0000072C00000EC
:1000400070C000006EC000006CC000006AC00000FC
:1000500068C0000066C0000064C0000062C000000C
:1000600060C000005EC000005CC000005AC000001C
:1000700058C0000056C0000054C0000052C000002C
:1000800050C000004EC000004CC000004AC000003C
:1000900048C0000046C0000044C0000042C000004C
:1000A00040C000003EC000003CC000003AC000005C
:1000B00038C0000036C0000034C0000032C000006C
:1000C00030C000002EC000002CC000002AC000007C
:1000D00028C0000026C0000024C0000022C000008C
:1000E00020C0000011241FBECFEFD1E2DEBFCDBF84
:1000F00000E00CBF13E0A0E0B2E0ECEFFCE000E0B9
:100100000BBF02C007900D92A432B107D9F723E0CC
:10011000A4E2B3E001C01D92A534B207E1F747D1D4
:10012000EBC56ECF9093260380932503609327033E
:10013000662341F088E293E0FC0111922E2F281BE8
:100140002617D8F308951F920F920FB60F9211241D
:100150008F9381E0809324038F910F900FBE0F90B7
:100160001F901895F8946C98EAE6F0E080818E7FF5
:100170008083808182608083EC9A789408950CD18A
:100180004FEF50E064E680E6EBD04FEF50E064E6DE
:1001900080E7E6D041E050E061E08BE2E1D040E072
:1001A00050E060EE8FE0DCD068E088E290E0BADFFB
:1001B000D9DF8EE0C7D09F938F9381E492E09F9325
:1001C0008F9380D182E592E08ED10F900F900F90A7
:1001D0000F9008958CE2B6D080FF07C040E050E059
:1001E00061E08CE2BDD080E008958CE2ABD081FF6D
:1001F00007C040E050E062E08CE2B2D081E00895B8
:100200008FEF08951F93CF93DF938091240388236A
:1002100009F494C010922403DDDF182F1295107F8B
:1002200081E6810F8FD0EC0182E6810F8BD095950E
:1002300087959595879595958795959587959595A6
:100240008795AC01407E55279E01220F331F220F58
:10025000331F220F331FEA01C22BD32BD09331035C
:10026000C093300385E6810F6DD08F708093320389
:10027000882379F010E0C2E3D3E086E6810F62D0F4
:10028000E12FF0E0E05DFC4F83831F5F888118174A
:10029000A0F390913A03292F332727FD30953F9300
:1002A0009F9390913903292F332727FD30953F9352
:1002B0009F9390913803292F332727FD30953F9343
:1002C0009F9390913703292F332727FD30953F9334
:1002D0009F9390913603292F332727FD30953F9325
:1002E0009F9390913503292F332727FD30953F9316
:1002F0009F9390913403292F332727FD30953F9307
:100300009F9390913303292F332727FD30953F93F7
:100310009F931F928F93E0E3F3E081818F9380811D
:100320008F9384E692E09F938F93CCD08DB79EB746
:1003300046960FB6F8949EBF0FBE8DBFDF91CF914A
:100340001F910895CF93C82F43D083E035D08C2FD1
:1003500033D037D0C82F3ED08C2F90E0CF91089566
:100360001F93CF93DF93182FD62FC42F31D085E062
:1003700023D0812F21D08D2F1FD08C2F1DD02AD09C
:10038000DF91CF911F91089582EE92E0ACD020D002
:1003900080EC12D01FC008951FD0F6CF089584EFCF
:1003A00092E0A1D087E690E033D0E9CE0895F894AA
:1003B000F6DF789427DFFECF8EBD0DB407FEFDCFAC
:1003C000089580E0F9DF0DB407FEFDCF8EB50895E6
:1003D0002F9808952F9A089584B1876884B98CB5B1
:1003E00081658CBDF7DF84E093E07DC00895E0EC8B
:1003F000F0E0908195FFFDCF8093C6000895E0EC7A
:10040000F0E080818823ECF78091C60090E00895A9
:100410009093C5008093C40088E18093C1008EE072
:100420008093C2006FEF71E087EF91E001C0089503
:100430000F931F93CF93DF93EC018B01009731F45F
:100440006115710519F480E090E037C06EE070E04E
:1004500081E090E063D2FC010097A9F380E88383F8
:100460000115110571F01387028781E8838380915C
:100470003B0390913C03892B21F4F0933C03E093E0
:100480003B032097C9F0D187C08783818260838333
:1004900080913D0390913E03892B71F4F0933E03CC
:1004A000E0933D0380913F0390914003892B21F419
:1004B000F0934003E0933F03CF01DF91CF911F9171
:1004C0000F910895CF93DF93CDB7DEB7FE01369637
:1004D00061917191AF0180913D0390913E0330D0C5
:1004E000DF91CF9108950F931F93CF93DF93E09106
:1004F0003D03F0913E03238121FF1BC0EC0100E08E
:1005000010E0899160913D0370913E03DB011896E4
:10051000ED91FC911997882331F01995892B89F376
:100520000FEF1FEFEECF8AE01995892B11F4C80168
:1005300002C08FEF9FEFDF91CF911F910F91089530
:100540002F923F924F925F926F927F928F929F92E3
:10055000AF92BF92CF92DF92EF92FF920F931F93D1
:10056000CF93DF93CDB7DEB72C970FB6F894DEBFED
:100570000FBECDBF7C016B018A01FC011782168280
:10058000838181FFB0C1CE0101964C01F7019381B7
:10059000F60193FD859193FF81916F01882309F402
:1005A0009EC1853239F493FD859193FF81916F014E
:1005B000853221F4B70190E00FD3E8CF512C312CD4
:1005C00020E02032A0F48B3269F030F4803259F010
:1005D000833269F420612CC08D3239F0803339F4D4
:1005E000216026C02260246023C0286021C027FD2E
:1005F00027C030ED380F3A3078F426FF06C0FAE015
:100600005F9E300D1124532E13C08AE0389E300DAA
:100610001124332E20620CC08E3221F426FD5FC1DE
:10062000206406C08C3611F4206802C0883641F47C
:10063000F60193FD859193FF81916F018111C1CFE7
:10064000982F9F7D9554933028F40C5F1F4FFFE344
:10065000F9830DC0833631F0833771F0833509F0AB
:1006600057C021C0F801808189830E5F1F4F442449
:100670004394512C540114C03801F2E06F0E711CE8
:10068000F801A080B18026FF03C0652D70E002C094
:100690006FEF7FEFC5012C8794D22C0183012C854D
:1006A0002F77222E16C03801F2E06F0E711CF80170
:1006B000A080B18026FF03C0652D70E002C06FEFFF
:1006C0007FEFC5012C876BD22C012C852068222E50
:1006D000830123FC19C0832D90E048165906A0F42D
:1006E000B70180E290E078D23A94F5CFF50127FC8B
:1006F000859127FE81915F01B70190E06DD23110A5
:100700003A94F1E04F1A51084114510479F7DEC0D0
:10071000843611F0893631F5F80127FF07C0608172
:100720007181828193810C5F1F4F08C0608171814C
:10073000882777FD8095982F0E5F1F4F2F76B22E5A
:1007400097FF09C090958095709561957F4F8F4F69
:100750009F4F2068B22E2AE030E0A4016FD2A82E6D
:10076000A81843C0853729F42F7EB22E2AE030E046
:1007700025C0F22FF97FBF2E8F36C1F018F48835CF
:1007800079F0ADC0803719F0883721F0A8C02F2F3D
:100790002061B22EB4FE0DC08B2D8460B82E09C02E
:1007A00024FF0AC09F2F9660B92E06C028E030E0D3
:1007B00005C020E130E002C020E132E0F801B7FEE0
:1007C00007C060817181828193810C5F1F4F06C0D9
:1007D0006081718180E090E00E5F1F4FA4012ED2F6
:1007E000A82EA818FB2DFF77BF2EB6FE0BC02B2D11
:1007F0002E7FA51450F4B4FE0AC0B2FC08C02B2D05
:100800002E7E05C07A2C2B2D03C07A2C01C0752CAE
:1008100024FF0DC0FE01EA0DF11D8081803311F42B
:10082000297E09C022FF06C07394739404C0822FEE
:10083000867809F0739423FD12C020FF06C05A2C5D
:10084000731418F4530C5718732C731460F4B70115
:1008500080E290E02C87C0D173942C85F6CF73147E
:1008600010F4371801C0312C24FF11C0B70180E308
:1008700090E02C87B1D12C8522FF16C021FF03C048
:1008800088E590E002C088E790E0B7010CC0822FB5
:10089000867851F021FD02C080E201C08BE227FD85
:1008A0008DE2B70190E098D1A51430F4B70180E350
:1008B00090E092D15A94F8CFAA94F401EA0DF11D78
:1008C0008081B70190E088D1A110F6CF332009F4E0
:1008D0005DCEB70180E290E07FD13A94F7CFF70187
:1008E0008681978102C08FEF9FEF2C960FB6F89408
:1008F000DEBF0FBECDBFDF91CF911F910F91FF9053
:10090000EF90DF90CF90BF90AF909F908F907F90AF
:100910006F905F904F903F902F9008950F931F938B
:10092000CF93DF93869F8001879F100D969F100DB8
:100930001124C8010DD0EC01009721F0A80160E05E
:1009400070E038D1CE01DF91CF911F910F910895C2
:10095000CF93DF938230910510F482E090E0E09134
:100960004303F091440320E030E0A0E0B0E0309792
:1009700039F14081518148175907B8F04817590794
:1009800071F482819381109729F013969C938E9332
:1009900012972CC0909344038093430327C02115E2
:1009A000310531F04217530718F0A901DB0101C0EE
:1009B000EF019A01BD01DF010280F381E02DD7CF65
:1009C00021153105F9F0281B390B2430310580F44D
:1009D0008A819B816115710521F0FB0193838283DC
:1009E00004C09093440380934303FE01329644C0B5
:1009F000FE01E20FF31F8193919322503109398355
:100A000028833AC02091410330914203232B41F4C3
:100A1000209102023091030230934203209341035C
:100A200020910002309101022115310541F42DB7CA
:100A30003EB74091040250910502241B350BE09112
:100A40004103F0914203E217F307A0F42E1B3F0B82
:100A50002817390778F0AC014E5F5F4F2417350730
:100A600048F04E0F5F1F5093420340934103819320
:100A7000919302C0E0E0F0E0CF01DF91CF910895C3
:100A8000CF93DF93009709F487C0FC01329713825C
:100A90001282C0914303D0914403209781F42081B6
:100AA0003181280F391F80914103909142038217B1
:100AB000930779F5F0934203E09341036DC0DE01A3
:100AC00020E030E0AE17BF0750F412964D915C91D4
:100AD00013979D014115510509F1DA01F3CFB38355
:100AE000A28340815181840F951F8A179B0771F45F
:100AF0008D919C911197840F951F0296918380830D
:100B000012968D919C9113979383828321153105C1
:100B100029F4F0934403E09343033EC0D9011396B4
:100B2000FC93EE9312974D915D91A40FB51FEA17B8
:100B3000FB0779F480819181840F951F0296D9017A
:100B400011969C938E938281938113969C938E939E
:100B50001297E0E0F0E08A819B81009719F0FE0196
:100B6000EC01F9CFCE01029628813981820F931FC3
:100B700020914103309142032817390769F43097D7
:100B800029F4109244031092430302C0138212828C
:100B9000D0934203C0934103DF91CF910895FC01AC
:100BA0000590615070400110D8F7809590958E0F98
:100BB0009F1F0895DC0101C06D9341505040E0F744
:100BC0000895FC016150704001900110D8F78095A4
:100BD00090958E0F9F1F08950F931F93CF93DF93D0
:100BE000182F092FEB018B8181FD03C08FEF9FEF41
:100BF00020C082FF10C04E815F812C813D81421751
:100C000053077CF4E881F9819F012F5F3F4F3983BF
:100C10002883108306C0E885F985812F1995892BD3
:100C200029F72E813F812F5F3F4F3F832E83812FF6
:100C3000902FDF91CF911F910F910895FA01AA276C
:100C4000283051F1203181F1E8946F936E7F6E5F0F
:100C50007F4F8F4F9F4FAF4FB1E03ED0B4E03CD0BD
:100C6000670F781F891F9A1FA11D680F791F8A1FA0
:100C7000911DA11D6A0F711D811D911DA11D20D007
:100C800009F468943F912AE0269F11243019305DC1
:100C90003193DEF6CF010895462F4770405D4193B2
:100CA000B3E00FD0C9F7F6CF462F4F70405D4A33FF
:100CB00018F0495D31FD4052419302D0A9F7EACFC7
:100CC000B4E0A6959795879577956795BA95C9F7F6
:100CD00000976105710508959B01AC010A2E0694E9
:100CE0005795479537952795BA95C9F7620F731FA2
:0C0CF000841F951FA01D0895F894FFCFED
:100CFC0000004503200043414E5F73656E645F62E4
:100D0C007974653A20094944202569204C3A2025FC
:100D1C006920444154413A202569202569202569E0
:100D2C002025692025692025692025692025690A47
:100D3C00004D43505F43414E535441543A20256972
:100D4C000A0043414E20696E697469616C697A6569
:100D5C00642E0A0043414E5F646174615F72656387
:100D6C00656976653A20094944202569204C3A206A
:100D7C00256920444154413A2025692025692025C4
:100D8C006920256920256920256920256920256988
:100D9C000A00496E746572727570743A2025690088
:100DAC004D4350323531355F74657374535049007F
:100DBC0056616C7565206F6620693A20256909209B
:100DCC0076616C7565206F66207265673A092569D6
:100DDC000A00526573657474696E67204D43503216
:100DEC0035313500496E697469616C697A696E6771
:100DFC002E2E2E0053504920636F6D6D756E6963F6
:100E0C006174696F6E20696E697469616C697A6569
:040E1C00642E000040
:00000001FF
