:1000000071C000008EC000008CC0000056C100000E
:1000100088C0000086C0000084C0000082C00000CC
:1000200080C000007EC000007CC000007AC00000DC
:1000300078C0000076C0000074C0000072C00000EC
:1000400070C000006EC000006CC000006AC00000FC
:1000500068C0000066C0000064C0000062C000000C
:1000600060C000005EC000005CC000005AC000001C
:1000700058C0000056C0000054C0000052C000002C
:1000800050C000004EC000004CC000004AC000003C
:1000900048C0000046C0000044C0000042C000004C
:1000A00040C000003EC000003CC000003AC000005C
:1000B00038C0000036C0000034C0000032C000006C
:1000C00030C000002EC000002CC000002AC000007C
:1000D00028C0000026C0000024C0000022C000008C
:1000E00020C0000011241FBECFEFD1E2DEBFCDBF84
:1000F00000E00CBF13E0A0E0B2E0E6E9FEE000E0C3
:100100000BBF02C007900D92AA3AB107D9F723E0BE
:10011000AAEAB3E001C01D92AB3CB207E1F7F4D10B
:10012000B8C66ECF9093AC038093AB036093AD03DE
:10013000662341F08EEA93E0FC0111922E2F281BDA
:100140002617D8F30895CF93DF931F92CDB7DEB76C
:10015000ACD14FEF64E680E694D141E061E08BE200
:1001600090D140E460EE8FE08CD168E088E290E0CE
:10017000D9DF8EE092E084D28EE05CD189838981E0
:100180001F928F938BE192E09F938F9368D20F9091
:100190000F900F900F900F90DF91CF910895FF92E5
:1001A0000F931F93CF93DF93EC01F62E062F02954A
:1001B000007F28813981B901759567957595679597
:1001C0007595679581E3800F26D168816295660FEA
:1001D000607E82E3800F1FD16A816F7085E3800F9C
:1001E0001AD18A81882369F010E00A5CFE01E10FD0
:1001F000F11D6381802F810F0ED11F5F9A81191726
:10020000A8F381E090E002C0880F991FFA94E2F70A
:1002100080581DD18091B5031F928F938091B403B4
:100220001F928F938091B3031F928F938091B2039B
:100230001F928F938091B1031F928F938091B0038F
:100240001F928F938091AF031F928F938091AE0383
:100250001F928F938091AD031F928F93EBEAF3E08F
:1002600081818F9380818F938CE292E09F938F9313
:10027000F6D18DB79EB746960FB6F8949EBF0FBEC7
:100280008DBFDF91CF911F910F91FF900895209125
:10029000AD03222359F0382FAEEAB3E0E82FF92F4F
:1002A00081918D938E2F831B8217D0F360E08BEAB0
:1002B00093E075CF0895BEC008951F920F920FB6B8
:1002C0000F9211248F93F89481E08093AA0378947D
:1002D0008F910F900FBE0F901F901895CF93DF93C3
:1002E0001F921F92CDB7DEB781E089838CE2A2D046
:1002F0008A838A811F928F938BE692E09F938F93DC
:10030000AED189811F928F938CE792E09F938F9358
:10031000A6D10FB6F894DEBF0FBECDBF80E00F9020
:100320000F90DF91CF9108951F93CF93DF938CE8C7
:1003300092E0A6D1D3DFC82F1F928F9328E932E035
:100340003F932F938CD1C295C07F82E68C0FB3DF91
:1003500081E68C0FB0DF28E0829FC00111249093CA
:10036000B7038093B60385E68C0FA5DF8F7080936B
:10037000B8030F900F900F900F90882379F010E042
:10038000C8EBD3E086E6810F96DFE12FF0E0EA5478
:10039000FC4F83831F5F88811817A0F39091C003DF
:1003A0001F929F939091BF031F929F939091BE03C2
:1003B0001F929F939091BD031F929F939091BC03B6
:1003C0001F929F939091BB031F929F939091BA03AA
:1003D0001F929F939091B9031F929F931F928F93A7
:1003E000E6EBF3E081818F9380818F9383EB92E042
:1003F0009F938F9334D140E06FEF8CE242D08DB762
:100400009EB746960FB6F8949EBF0FBE8DBFDF9184
:10041000CF911F910895CF93DF93D82FC62FA5D0EA
:1004200082E09AD08D2F98D08C2F96D0A0D0DF91DB
:10043000CF910895CF93C82F98D083E08DD08C2F83
:100440008BD08FD0C82F93D08C2FCF910895CF937E
:10045000C82F8BD021E030E0C90102C0880F991F5E
:10046000CA95E2F7806878D082D0CF910895CF9373
:100470007CD080EA71D075D0C82F79D08C2FCF91E5
:1004800008951F93CF93DF93182FD62FC42F6DD0CD
:1004900085E062D0812F60D08D2F5ED08C2F5CD014
:1004A00066D0DF91CF911F910895CF93DF931F9274
:1004B000CDB7DEB75ED059D082E293E0E1D080ECD8
:1004C0004BD082E493E0DCD052D0D1DF89838981A4
:1004D0001F928F9381E693E09F938F93C0D040E863
:1004E00060EE8FE0CEDF40E460EE8FE0CADF40E0F8
:1004F00060EE8FE0C6DF3BD00F900F900F900F9013
:100500000F90DF91CF910895CF93DF93CDB7DEB7F2
:1005100028970FB6F894DEBF0FBECDBF87E690E0F8
:1005200044D08BE793E0ACD00EDE88E0E6E0F2E06A
:10053000DE01119601900D928A95E1F7CE010196A8
:10054000A6DEF2DE2FEF83ED90E321508040904055
:10055000E1F700C00000FFCF8EBD0DB407FEFDCF58
:10056000089580E0F9DF8EB508952F9808952F9AA9
:10057000089584B1876884B98CB581658CBDF7DF37
:100580008BE893E07DC00895E0ECF0E0908195FF6A
:10059000FDCF8093C6000895E0ECF0E080818823D1
:1005A000ECF78091C60090E008959093C500809389
:1005B000C40088E18093C1008EE08093C2006CEC9F
:1005C00072E084EC92E001C008950F931F93CF93E3
:1005D000DF93EC018B01009731F46115710519F47B
:1005E00080E090E037C06EE070E081E090E063D2A0
:1005F000FC010097A9F380E883830115110571F0D0
:100600001387028781E883838091C1039091C2039D
:10061000892B21F4F093C203E093C1032097C9F022
:10062000D187C0878381826083838091C303909147
:10063000C403892B71F4F093C403E093C303809146
:10064000C5039091C603892B21F4F093C603E09370
:10065000C503CF01DF91CF911F910F910895CF93E3
:10066000DF93CDB7DEB7FE01369661917191AF0190
:100670008091C3039091C40330D0DF91CF9108954E
:100680000F931F93CF93DF93E091C303F091C403C3
:10069000238121FF1BC0EC0100E010E089916091F3
:1006A000C3037091C403DB011896ED91FC91199777
:1006B000882331F01995892B89F30FEF1FEFEECFC7
:1006C0008AE01995892B11F4C80102C08FEF9FEFC2
:1006D000DF91CF911F910F9108952F923F924F92EA
:1006E0005F926F927F928F929F92AF92BF92CF92C2
:1006F000DF92EF92FF920F931F93CF93DF93CDB7CB
:10070000DEB72C970FB6F894DEBF0FBECDBF7C01CD
:100710006B018A01FC0117821682838181FFB0C1BF
:10072000CE0101964C01F7019381F60193FD85916D
:1007300093FF81916F01882309F49EC1853239F4BA
:1007400093FD859193FF81916F01853221F4B7016B
:1007500090E00FD3E8CF512C312C20E02032A0F4D0
:100760008B3269F030F4803259F0833269F42061C1
:100770002CC08D3239F0803339F4216026C02260DC
:10078000246023C0286021C027FD27C030ED380F2A
:100790003A3078F426FF06C0FAE05F9E300D11244F
:1007A000532E13C08AE0389E300D1124332E206260
:1007B0000CC08E3221F426FD5FC1206406C08C3649
:1007C00011F4206802C0883641F4F60193FD85914A
:1007D00093FF81916F018111C1CF982F9F7D955417
:1007E000933028F40C5F1F4FFFE3F9830DC083366D
:1007F00031F0833771F0833509F057C021C0F8011B
:10080000808189830E5F1F4F44244394512C5401EF
:1008100014C03801F2E06F0E711CF801A080B180A5
:1008200026FF03C0652D70E002C06FEF7FEFC501AA
:100830002C8794D22C0183012C852F77222E16C071
:100840003801F2E06F0E711CF801A080B18026FF24
:1008500003C0652D70E002C06FEF7FEFC5012C87EC
:100860006BD22C012C852068222E830123FC19C019
:10087000832D90E048165906A0F4B70180E290E07D
:1008800078D23A94F5CFF50127FC859127FE819126
:100890005F01B70190E06DD231103A94F1E04F1A48
:1008A00051084114510479F7DEC0843611F08936BD
:1008B00031F5F80127FF07C0608171818281938142
:1008C0000C5F1F4F08C060817181882777FD80957C
:1008D000982F0E5F1F4F2F76B22E97FF09C090956D
:1008E0008095709561957F4F8F4F9F4F2068B22EF6
:1008F0002AE030E0A4016FD2A82EA81843C08537A3
:1009000029F42F7EB22E2AE030E025C0F22FF97FA5
:10091000BF2E8F36C1F018F4883579F0ADC080371E
:1009200019F0883721F0A8C02F2F2061B22EB4FE15
:100930000DC08B2D8460B82E09C024FF0AC09F2FE4
:100940009660B92E06C028E030E005C020E130E016
:1009500002C020E132E0F801B7FE07C0608171817A
:10096000828193810C5F1F4F06C06081718180E09E
:1009700090E00E5F1F4FA4012ED2A82EA818FB2DC9
:10098000FF77BF2EB6FE0BC02B2D2E7FA51450F483
:10099000B4FE0AC0B2FC08C02B2D2E7E05C07A2CF6
:1009A0002B2D03C07A2C01C0752C24FF0DC0FE0135
:1009B000EA0DF11D8081803311F4297E09C022FFE8
:1009C00006C07394739404C0822F867809F07394E0
:1009D00023FD12C020FF06C05A2C731418F4530CC8
:1009E0005718732C731460F4B70180E290E02C87E1
:1009F000C0D173942C85F6CF731410F4371801C04E
:100A0000312C24FF11C0B70180E390E02C87B1D1D5
:100A10002C8522FF16C021FF03C088E590E002C0AC
:100A200088E790E0B7010CC0822F867851F021FD55
:100A300002C080E201C08BE227FD8DE2B70190E0A9
:100A400098D1A51430F4B70180E390E092D15A9484
:100A5000F8CFAA94F401EA0DF11D8081B70190E06E
:100A600088D1A110F6CF332009F45DCEB70180E222
:100A700090E07FD13A94F7CFF7018681978102C049
:100A80008FEF9FEF2C960FB6F894DEBF0FBECDBF51
:100A9000DF91CF911F910F91FF90EF90DF90CF905A
:100AA000BF90AF909F908F907F906F905F904F908E
:100AB0003F902F9008950F931F93CF93DF93869FBE
:100AC0008001879F100D969F100D1124C8010DD035
:100AD000EC01009721F0A80160E070E038D1CE0170
:100AE000DF91CF911F910F910895CF93DF938230C3
:100AF000910510F482E090E0E091C903F091CA03FF
:100B000020E030E0A0E0B0E0309739F14081518141
:100B100048175907B8F04817590771F48281938133
:100B2000109729F013969C938E9312972CC0909354
:100B3000CA038093C90327C02115310531F042173C
:100B4000530718F0A901DB0101C0EF019A01BD01B3
:100B5000DF010280F381E02DD7CF21153105F9F0B7
:100B6000281B390B2430310580F48A819B81611563
:100B7000710521F0FB019383828304C09093CA0323
:100B80008093C903FE01329644C0FE01E20FF31FB9
:100B90008193919322503109398328833AC020915F
:100BA000C7033091C803232B41F4209102023091F6
:100BB00003023093C8032093C703209100023091B1
:100BC00001022115310541F42DB73EB740910402D1
:100BD00050910502241B350BE091C703F091C80327
:100BE000E217F307A0F42E1B3F0B2817390778F004
:100BF000AC014E5F5F4F2417350748F04E0F5F1F63
:100C00005093C8034093C7038193919302C0E0E0DF
:100C1000F0E0CF01DF91CF910895CF93DF9300975C
:100C200009F487C0FC01329713821282C091C90374
:100C3000D091CA03209781F420813181280F391F78
:100C40008091C7039091C8038217930779F5F093B9
:100C5000C803E093C7036DC0DE0120E030E0AE17AB
:100C6000BF0750F412964D915C9113979D01411569
:100C7000510509F1DA01F3CFB383A2834081518199
:100C8000840F951F8A179B0771F48D919C91119782
:100C9000840F951F02969183808312968D919C916B
:100CA0001397938382832115310529F4F093CA03A6
:100CB000E093C9033EC0D9011396FC93EE931297BB
:100CC0004D915D91A40FB51FEA17FB0779F4808160
:100CD0009181840F951F0296D90111969C938E9352
:100CE0008281938113969C938E931297E0E0F0E0BB
:100CF0008A819B81009719F0FE01EC01F9CFCE01AA
:100D0000029628813981820F931F2091C703309169
:100D1000C8032817390769F4309729F41092CA03D9
:100D20001092C90302C013821282D093C803C093E9
:100D3000C703DF91CF910895FC0105906150704089
:100D40000110D8F7809590958E0F9F1F0895DC01B4
:100D500001C06D9341505040E0F70895FC0161508F
:100D6000704001900110D8F7809590958E0F9F1FCD
:100D700008950F931F93CF93DF93182F092FEB0143
:100D80008B8181FD03C08FEF9FEF20C082FF10C0D9
:100D90004E815F812C813D81421753077CF4E881AD
:100DA000F9819F012F5F3F4F39832883108306C04D
:100DB000E885F985812F1995892B29F72E813F81A7
:100DC0002F5F3F4F3F832E83812F902FDF91CF9155
:100DD0001F910F910895FA01AA27283051F120316F
:100DE00081F1E8946F936E7F6E5F7F4F8F4F9F4FBF
:100DF000AF4FB1E03ED0B4E03CD0670F781F891F01
:100E00009A1FA11D680F791F8A1F911DA11D6A0FCE
:100E1000711D811D911DA11D20D009F468943F9181
:100E20002AE0269F11243019305D3193DEF6CF0180
:100E30000895462F4770405D4193B3E00FD0C9F746
:100E4000F6CF462F4F70405D4A3318F0495D31FDB3
:100E50004052419302D0A9F7EACFB4E0A695979506
:100E6000879577956795BA95C9F7009761057105DC
:100E700008959B01AC010A2E069457954795379526
:100E80002795BA95C9F7620F731F841F951FA01D80
:060E90000895F894FFCF65
:100E96000000CB0320000102030405060708726563
:100EA60061642043414E53544154004D43505F43C7
:100EB600414E535441543A2025690A0043414E5F3E
:100EC60073656E645F627974653A204944202569CA
:100ED600204C656E6774683A202569204441544168
:100EE6003A2025692025692025692025692025695C
:100EF6002025692025692025690A000A20696E7463
:100F06006572727570743A2025690A000A20696E46
:100F1600746572727570743A2025690043414E20DB
:100F2600726563656976650043414E5F7472616EF2
:100F3600736D69745F636F6D706C6574653A2025B7
:100F4600690A0043414E5F646174615F726563655F
:100F56006976653A204944202569204C3A2025695E
:100F660020444154413A20256920256920256920DD
:100F760025692025692025692025692025690A001B
:100F86004D4350323531355F7465737453504900A3
:100F960056616C7565206F6620693A2025690920BF
:100FA60076616C7565206F66207265673A092569FA
:100FB6000A004D4350323531355F696E6974696197
:100FC6006C697A65206265666F7265207265736505
:100FD60074004D4350323531355F696E697469610D
:100FE6006C697A65206166746572207265736574D2
:100FF60000204D4350323531355F726561645F7351
:1010060074617475733A2025690A00496E697469BA
:10101600616C697A696E672E2E2E005350492063E3
:101026006F6D6D756E69636174696F6E20696E6947
:0A1036007469616C697A65642E002C
:00000001FF
