:1000000071C000008EC000008CC000008AC00000DB
:1000100088C0000026C1000084C0000082C000002B
:1000200080C000007EC000007CC000007AC00000DC
:1000300078C0000076C0000074C0000072C00000EC
:1000400070C000006EC000006CC000006AC00000FC
:1000500068C0000066C0000064C0000062C000000C
:1000600060C000005EC000005CC000005AC000001C
:1000700058C0000056C0000054C0000052C000002C
:1000800050C000004EC000004CC000004AC000003C
:1000900048C0000046C0000044C0000042C000004C
:1000A00040C000003EC000003CC000003AC000005C
:1000B00038C0000036C0000034C0000032C000006C
:1000C00030C000002EC000002CC000002AC000007C
:1000D00028C0000026C0000024C0000022C000008C
:1000E00020C0000011241FBECFEFD1E2DEBFCDBF84
:1000F00000E00CBF13E0A0E0B2E0E4E7FEE000E0C7
:100100000BBF02C007900D92AE31B107D9F723E0C3
:10011000AEE1B3E001C01D92A034B207E1F7DED139
:10012000A7C66ECF90932103809320036093220390
:10013000662341F083E293E0FC0111922E2F281BED
:100140002617D8F30895FF920F931F93CF93DF9351
:10015000EC01F62E062F0295007F28813981B90126
:1001600075956795759567957595679581E3800F8A
:1001700062D168816295660F607E82E3800F5BD1F9
:100180006A816F7085E3800F56D18A81882369F078
:1001900010E00A5CFE01E10FF11D6381802F810FE9
:1001A0004AD11F5F9A811917A8F381E090E002C03D
:1001B000880F991FFA94E2F7805859D180912A0349
:1001C0001F928F93809129031F928F938091280310
:1001D0001F928F93809127031F928F938091260304
:1001E0001F928F93809125031F928F9380912403F8
:1001F0001F928F93809123031F928F9380912203EC
:100200001F928F93E0E2F3E081818F9380818F933F
:100210008EE092E09F938F9311D28DB79EB7469652
:100220000FB6F8949EBF0FBE8DBFDF91CF911F9187
:100230000F91FF90089520912203222359F0382F27
:10024000A3E2B3E0E82FF92F81918D938E2F831BCA
:100250008217D0F360E080E293E075CF0895FAC092
:1002600008951F920F920FB60F9211248F9381E081
:1002700080931E038F910F900FBE0F901F901895C3
:10028000F8946C98EAE6F0E080818E7F808380812C
:1002900082608083EC9A78940895CF93DF931F92C5
:1002A000CDB7DEB710D14FEF64E680E6F0D041E085
:1002B00061E08BE2ECD040E460EE8FE0E8D068E0F3
:1002C00088E290E02FDF8EE0C5D0898389811F927C
:1002D0008F9389E492E09F938F93B0D1D1DF8AE529
:1002E00092E0BDD10F900F900F900F900F90DF9183
:1002F000CF910895CF93DF931F92CDB7DEB78CE2F5
:10030000A9D08983898181FD0CC0898182FD09C0C2
:100310008CE2A0D08983898181FD03C0898182FF1D
:10032000F7CF898182FF09C081E080931F0344E0F9
:100330006FEF8CE2ACD081E00EC0898181FF06C0F6
:1003400042E06FEF8CE2A3D080E005C040E06FEFA9
:100350008CE29DD08FEF0F90DF91CF9108951F9386
:10036000CF93DF9380911E03882309F460C010921D
:100370001E03C0DFC82FC295C07F82E68C0F6FDFDF
:1003800081E68C0F6CDF28E0829FC00111249093DE
:100390002C0380932B0385E68C0F61DF8F70809395
:1003A0002D03882379F010E0CDE2D3E086E6810FBB
:1003B00056DFE12FF0E0E55DFC4F83831F5F88810E
:1003C0001817A0F3909135031F929F9390913403D7
:1003D0001F929F93909133031F929F9390913203AA
:1003E0001F929F93909131031F929F93909130039E
:1003F0001F929F9390912F031F929F9390912E0392
:100400001F929F931F928F93EBE2F3E081818F9372
:1004100080818F938CE692E09F938F930FD18DB75D
:100420009EB746960FB6F8949EBF0FBE8DBFDF9164
:10043000CF911F910895CF93DF93D82FC62F84D0EB
:1004400082E076D08D2F74D08C2F72D07FD0DF9148
:10045000CF910895CF93C82F77D083E069D08C2FA8
:1004600067D06BD0C82F72D08C2FCF910895CF93C7
:10047000C82F6AD021E030E0C90102C0880F991F5F
:10048000CA95E2F7806854D061D0CF9108951F9348
:10049000CF93DF93182FD62FC42F56D085E048D0A6
:1004A000812F46D08D2F44D08C2F42D04FD0DF915A
:1004B000CF911F9108958CED92E0D1D045D080EC82
:1004C00037D044C0089544D0F6CF08958EEE92E020
:1004D000C6D087E690E058D0E0CE0895CF93DF9362
:1004E000CDB7DEB728970FB6F894DEBF0FBECDBFED
:1004F000F894ECDF789488E0E6E0F2E0DE01119613
:1005000001900D928A95E1F7CE01019694DE2FEFCE
:1005100081EE94E0215080409040E1F700C000005F
:1005200084E68D83CE01019686DE19DF18DFFFCFCA
:100530008EBD0DB407FEFDCF089580E0F9DF0DB448
:1005400007FEFDCF8EB508952F9808952F9A089530
:1005500084B1876884B98CB581658CBDF7DF8EEF77
:1005600092E07DC00895E0ECF0E0908195FFFDCF32
:100570008093C6000895E0ECF0E080818823ECF7DA
:100580008091C60090E008959093C5008093C400C8
:1005900088E18093C1008EE08093C2006BEB72E033
:1005A00083EB92E001C008950F931F93CF93DF93E5
:1005B000EC018B01009731F46115710519F480E0AD
:1005C00090E037C06EE070E081E090E063D2FC0123
:1005D0000097A9F380E883830115110571F0138753
:1005E000028781E883838091360390913703892BBA
:1005F00021F4F0933703E09336032097C9F0D187B5
:10060000C08783818260838380913803909139030E
:10061000892B71F4F0933903E093380380913A0306
:1006200090913B03892B21F4F0933B03E0933A0331
:10063000CF01DF91CF911F910F910895CF93DF9359
:10064000CDB7DEB7FE01369661917191AF01809111
:1006500038039091390330D0DF91CF9108950F93F3
:100660001F93CF93DF93E0913803F09139032381F7
:1006700021FF1BC0EC0100E010E08991609138037C
:1006800070913903DB011896ED91FC91199788233D
:1006900031F01995892B89F30FEF1FEFEECF8AE028
:1006A0001995892B11F4C80102C08FEF9FEFDF91DC
:1006B000CF911F910F9108952F923F924F925F9289
:1006C0006F927F928F929F92AF92BF92CF92DF9262
:1006D000EF92FF920F931F93CF93DF93CDB7DEB7C7
:1006E0002C970FB6F894DEBF0FBECDBF7C016B0117
:1006F0008A01FC0117821682838181FFB0C1CE017D
:1007000001964C01F7019381F60193FD859193FFCA
:1007100081916F01882309F49EC1853239F493FDDC
:10072000859193FF81916F01853221F4B70190E0AB
:100730000FD3E8CF512C312C20E02032A0F48B32A3
:1007400069F030F4803259F0833269F420612CC0B2
:100750008D3239F0803339F4216026C02260246064
:1007600023C0286021C027FD27C030ED380F3A3064
:1007700078F426FF06C0FAE05F9E300D1124532E58
:1007800013C08AE0389E300D1124332E20620CC035
:100790008E3221F426FD5FC1206406C08C3611F430
:1007A000206802C0883641F4F60193FD859193FFDD
:1007B00081916F018111C1CF982F9F7D9554933006
:1007C00028F40C5F1F4FFFE3F9830DC0833631F02F
:1007D000833771F0833509F057C021C0F80180815B
:1007E00089830E5F1F4F44244394512C540114C03D
:1007F0003801F2E06F0E711CF801A080B18026FF75
:1008000003C0652D70E002C06FEF7FEFC5012C873C
:1008100094D22C0183012C852F77222E16C038010B
:10082000F2E06F0E711CF801A080B18026FF03C0BA
:10083000652D70E002C06FEF7FEFC5012C876BD292
:100840002C012C852068222E830123FC19C0832DC6
:1008500090E048165906A0F4B70180E290E078D203
:100860003A94F5CFF50127FC859127FE81915F0130
:10087000B70190E06DD231103A94F1E04F1A51086F
:100880004114510479F7DEC0843611F0893631F510
:10089000F80127FF07C060817181828193810C5F1D
:1008A0001F4F08C060817181882777FD8095982F40
:1008B0000E5F1F4F2F76B22E97FF09C0909580953F
:1008C000709561957F4F8F4F9F4F2068B22E2AE021
:1008D00030E0A4016FD2A82EA81843C0853729F4B0
:1008E0002F7EB22E2AE030E025C0F22FF97FBF2EF6
:1008F0008F36C1F018F4883579F0ADC0803719F023
:10090000883721F0A8C02F2F2061B22EB4FE0DC071
:100910008B2D8460B82E09C024FF0AC09F2F9660DB
:10092000B92E06C028E030E005C020E130E002C06A
:1009300020E132E0F801B7FE07C060817181828159
:1009400093810C5F1F4F06C06081718180E090E051
:100950000E5F1F4FA4012ED2A82EA818FB2DFF77E3
:10096000BF2EB6FE0BC02B2D2E7FA51450F4B4FE67
:100970000AC0B2FC08C02B2D2E7E05C07A2C2B2D70
:1009800003C07A2C01C0752C24FF0DC0FE01EA0DB6
:10099000F11D8081803311F4297E09C022FF06C039
:1009A0007394739404C0822F867809F0739423FDA6
:1009B00012C020FF06C05A2C731418F4530C571899
:1009C000732C731460F4B70180E290E02C87C0D1DF
:1009D00073942C85F6CF731410F4371801C0312CA2
:1009E00024FF11C0B70180E390E02C87B1D12C85A2
:1009F00022FF16C021FF03C088E590E002C088E70F
:100A000090E0B7010CC0822F867851F021FD02C022
:100A100080E201C08BE227FD8DE2B70190E098D122
:100A2000A51430F4B70180E390E092D15A94F8CF46
:100A3000AA94F401EA0DF11D8081B70190E088D1FC
:100A4000A110F6CF332009F45DCEB70180E290E02B
:100A50007FD13A94F7CFF7018681978102C08FEF5B
:100A60009FEF2C960FB6F894DEBF0FBECDBFDF917F
:100A7000CF911F910F91FF90EF90DF90CF90BF909B
:100A8000AF909F908F907F906F905F904F903F902E
:100A90002F9008950F931F93CF93DF93869F80012C
:100AA000879F100D969F100D1124C8010DD0EC01E9
:100AB000009721F0A80160E070E038D1CE01DF910D
:100AC000CF911F910F910895CF93DF9382309105BD
:100AD00010F482E090E0E0913E03F0913F0320E0CB
:100AE00030E0A0E0B0E0309739F140815181481703
:100AF0005907B8F04817590771F48281938110970C
:100B000029F013969C938E9312972CC090933F03D9
:100B100080933E0327C02115310531F0421753075A
:100B200018F0A901DB0101C0EF019A01BD01DF014D
:100B30000280F381E02DD7CF21153105F9F0281B74
:100B4000390B2430310580F48A819B816115710550
:100B500021F0FB019383828304C090933F03809331
:100B60003E03FE01329644C0FE01E20FF31F819363
:100B7000919322503109398328833AC020913C0354
:100B800030913D03232B41F4209102023091030266
:100B900030933D0320933C032091000230910102E9
:100BA0002115310541F42DB73EB740910402509113
:100BB0000502241B350BE0913C03F0913D03E21745
:100BC000F307A0F42E1B3F0B2817390778F0AC0170
:100BD0004E5F5F4F2417350748F04E0F5F1F50934D
:100BE0003D0340933C038193919302C0E0E0F0E029
:100BF000CF01DF91CF910895CF93DF93009709F450
:100C000087C0FC01329713821282C0913E03D091BB
:100C10003F03209781F420813181280F391F809173
:100C20003C0390913D038217930779F5F0933D03C0
:100C3000E0933C036DC0DE0120E030E0AE17BF075B
:100C400050F412964D915C9113979D0141155105F9
:100C500009F1DA01F3CFB383A28340815181840F7C
:100C6000951F8A179B0771F48D919C911197840FA2
:100C7000951F02969183808312968D919C91139774
:100C8000938382832115310529F4F0933F03E09388
:100C90003E033EC0D9011396FC93EE9312974D91FB
:100CA0005D91A40FB51FEA17FB0779F4808191814C
:100CB000840F951F0296D90111969C938E93828181
:100CC000938113969C938E931297E0E0F0E08A81D3
:100CD0009B81009719F0FE01EC01F9CFCE0102963D
:100CE00028813981820F931F20913C0330913D036D
:100CF0002817390769F4309729F410923F031092AE
:100D00003E0302C013821282D0933D03C0933C0382
:100D1000DF91CF910895FC01059061507040011062
:100D2000D8F7809590958E0F9F1F0895DC0101C024
:100D30006D9341505040E0F70895FC0161507040C0
:100D400001900110D8F7809590958E0F9F1F089500
:100D50000F931F93CF93DF93182F092FEB018B81F4
:100D600081FD03C08FEF9FEF20C082FF10C04E8136
:100D70005F812C813D81421753077CF4E881F98122
:100D80009F012F5F3F4F39832883108306C0E8857A
:100D9000F985812F1995892B29F72E813F812F5FA6
:100DA0003F4F3F832E83812F902FDF91CF911F9153
:100DB0000F910895FA01AA27283051F1203181F1CD
:100DC000E8946F936E7F6E5F7F4F8F4F9F4FAF4F53
:100DD000B1E03ED0B4E03CD0670F781F891F9A1F66
:100DE000A11D680F791F8A1F911DA11D6A0F711D1A
:100DF000811D911DA11D20D009F468943F912AE026
:100E0000269F11243019305D3193DEF6CF0108950D
:100E1000462F4770405D4193B3E00FD0C9F7F6CF3E
:100E2000462F4F70405D4A3318F0495D31FD405206
:100E3000419302D0A9F7EACFB4E0A695979587959C
:100E400077956795BA95C9F700976105710508957B
:100E50009B01AC010A2E0694579547953795279527
:100E6000BA95C9F7620F731F841F951FA01D0895BF
:040E7000F894FFCF24
:100E74000000400320000102030405060708434163
:100E84004E5F73656E645F627974653A2009494404
:100E9400202569204C3A20256920444154413A20B8
:100EA40025692025692025692025692025692025B3
:100EB400692025692025690A004D43505F43414E4E
:100EC400535441543A2025690A0043414E20696E27
:100ED400697469616C697A65642E0A0043414E5FE6
:100EE400646174615F726563656976653A20094976
:100EF40044202569204C3A20256920444154413A34
:100F04002025692025692025692025692025692057
:100F140025692025692025690A004D435032353161
:100F2400355F746573745350490056616C75652060
:100F34006F6620693A202569092076616C75652001
:100F44006F66207265673A0925690A005265736500
:100F54007474696E67204D43503235313500496EE3
:100F6400697469616C697A696E672E2E2E0053501C
:100F74004920636F6D6D756E69636174696F6E206E
:0E0F8400696E697469616C697A65642E00009B
:00000001FF
