:1000000071C000008EC000008CC000008AC00000DB
:1000100088C00000F0C0000084C0000082C0000062
:1000200080C000007EC000007CC000007AC00000DC
:1000300078C0000076C0000074C0000072C00000EC
:1000400070C000006EC000006CC000006AC00000FC
:1000500068C0000066C0000064C0000062C000000C
:1000600060C000005EC000005CC000005AC000001C
:1000700058C0000056C0000054C0000052C000002C
:1000800050C000004EC000004CC000004AC000003C
:1000900048C0000046C0000044C0000042C000004C
:1000A00040C000003EC000003CC000003AC000005C
:1000B00038C0000036C0000034C0000032C000006C
:1000C00030C000002EC000002CC000002AC000007C
:1000D00028C0000026C0000024C0000022C000008C
:1000E00020C0000011241FBECFEFD1E2DEBFCDBF84
:1000F00000E00CBF12E0A0E0B2E0EAE4FDE000E0C6
:100100000BBF02C007900D92A43EB107D9F723E0C0
:10011000A4EEB2E001C01D92A530B207E1F76ED1A6
:1001200012C66ECF9093E6028093E5026093E702D9
:10013000662341F088EE92E0FC0111922E2F281BDD
:100140002617D8F30895CF92DF92EF92FF920F9384
:100150001F93CF93DF93CDB7DEB72B970FB6F894ED
:10016000DEBF0FBECDBFE982FA82C02E0B831C8397
:100170002D833E834F83588769877A878B871F92A9
:100180000F938A818F9389818F9386E092E09F936A
:100190008F93BFD10F900F900F900F900F900F90F3
:1001A0000023D1F07E0184E0E80EF11CD12C0AE19D
:1001B00012E0F70121917F01822F992787FD909509
:1001C0009F932F931F930F93A4D1D3940F900F90CD
:1001D0000F900F90DC10EDCF2B960FB6F894DEBF8A
:1001E0000FBECDBFDF91CF911F910F91FF90EF9088
:1001F000DF90CF9008951F920F920FB60F921124A7
:100200008F9381E08093E4028F910F900FBE0F9047
:100210001F901895F8946C98EAE6F0E080818E7F44
:100220008083808182608083EC9A78940895DBD00B
:100230004FEF50E064E680E6BAD04FEF50E064E65E
:1002400080E7B5D041E050E061E08BE2B0D040E023
:1002500050E060EE8FE0ABD068E088E290E062DFD3
:10026000D9DF8EE096D09F938F938DE292E09F939B
:100270008F934FD18EE392E05DD10F900F900F904E
:100280000F9008958CE285D080FF07C040E050E0D9
:1002900061E08CE28CD080E008958CE27AD081FF1E
:1002A00007C040E050E062E08CE281D081E0089538
:1002B0008FEF0895EF92FF920F931F93CF93DF93E9
:1002C0008091E402882309F45DC01092E402DADF31
:1002D000182F1295107F81E6810F5BD0EC0182E62A
:1002E000810F57D095958795959587959595879585
:1002F0009595879595958795AC01407E55279E01EC
:10030000220F331F220F331F220F331FEA01C22B8C
:10031000D32BD093F102C093F00285E6810F39D040
:100320008F708093F202882379F010E0C2EFD2E060
:1003300086E6810F2ED0E12FF0E0E051FD4F838360
:100340001F5F88811817A0F380E592E09F938F9339
:10035000E0D0E090F002F090F1020091F2021091F2
:10036000F3022091F4023091F5024091F60250918F
:10037000F7026091F8027091F9028091FA02E3DECF
:100380000F900F90DF91CF911F910F91FF90EF9001
:100390000895CF93C82F43D083E035D08C2F33D02E
:1003A00037D0C82F3ED08C2F90E0CF9108951F9367
:1003B000CF93DF93182FD62FC42F31D085E023D0D1
:1003C000812F21D08D2F1FD08C2F1DD02AD0DF91CF
:1003D000CF911F91089582EA92E0ACD020D080ECBA
:1003E00012D01FC008951FD0F6CF089584EB92E07D
:1003F000A1D087E690E033D01ACF0895F894F6DFC5
:10040000789458DFFECF8EBD0DB407FEFDCF089562
:1004100080E0F9DF0DB407FEFDCF8EB508952F986B
:1004200008952F9A089584B1876884B98CB5816541
:100430008CBDF7DF84EC92E07DC00895E0ECF0E045
:10044000908195FFFDCF8093C6000895E0ECF0E029
:1004500080818823ECF78091C60090E00895909306
:10046000C5008093C40088E18093C1008EE0809332
:10047000C20066E272E08EE192E001C008950F933F
:100480001F93CF93DF93EC018B01009731F461153B
:10049000710519F480E090E037C06EE070E081E013
:1004A00090E063D2FC010097A9F380E883830115F3
:1004B000110571F01387028781E883838091FB0225
:1004C0009091FC02892B21F4F093FC02E093FB0253
:1004D0002097C9F0D187C087838182608383809110
:1004E000FD029091FE02892B71F4F093FE02E093DD
:1004F000FD028091FF0290910003892B21F4F0937B
:100500000003E093FF02CF01DF91CF911F910F9184
:100510000895CF93DF93CDB7DEB7FE013696619194
:100520007191AF018091FD029091FE0230D0DF9178
:10053000CF9108950F931F93CF93DF93E091FD0226
:10054000F091FE02238121FF1BC0EC0100E010E0CE
:1005500089916091FD027091FE02DB011896ED9188
:10056000FC911997882331F01995892B89F30FEFA6
:100570001FEFEECF8AE01995892B11F4C80102C054
:100580008FEF9FEFDF91CF911F910F9108952F92E1
:100590003F924F925F926F927F928F929F92AF9213
:1005A000BF92CF92DF92EF92FF920F931F93CF9360
:1005B000DF93CDB7DEB72C970FB6F894DEBF0FBE32
:1005C000CDBF7C016B018A01FC01178216828381F9
:1005D00081FFB0C1CE0101964C01F7019381F60174
:1005E00093FD859193FF81916F01882309F49EC14A
:1005F000853239F493FD859193FF81916F018532A6
:1006000021F4B70190E00FD3E8CF512C312C20E03A
:100610002032A0F48B3269F030F4803259F083320A
:1006200069F420612CC08D3239F0803339F42160B7
:1006300026C02260246023C0286021C027FD27C077
:1006400030ED380F3A3078F426FF06C0FAE05F9EAE
:10065000300D1124532E13C08AE0389E300D112422
:10066000332E20620CC08E3221F426FD5FC120643F
:1006700006C08C3611F4206802C0883641F4F601B9
:1006800093FD859193FF81916F018111C1CF982FC7
:100690009F7D9554933028F40C5F1F4FFFE3F9833F
:1006A0000DC0833631F0833771F0833509F057C0C0
:1006B00021C0F801808189830E5F1F4F4424439439
:1006C000512C540114C03801F2E06F0E711CF80176
:1006D000A080B18026FF03C0652D70E002C06FEFDF
:1006E0007FEFC5012C8794D22C0183012C852F77B5
:1006F000222E16C03801F2E06F0E711CF801A080A6
:10070000B18026FF03C0652D70E002C06FEF7FEF60
:10071000C5012C876BD22C012C852068222E8301E9
:1007200023FC19C0832D90E048165906A0F4B701A8
:1007300080E290E078D23A94F5CFF50127FC8591DC
:1007400027FE81915F01B70190E06DD231103A949C
:10075000F1E04F1A51084114510479F7DEC0843694
:1007600011F0893631F5F80127FF07C060817181EA
:10077000828193810C5F1F4F08C06081718188273F
:1007800077FD8095982F0E5F1F4F2F76B22E97FF23
:1007900009C090958095709561957F4F8F4F9F4FC1
:1007A0002068B22E2AE030E0A4016FD2A82EA8184B
:1007B00043C0853729F42F7EB22E2AE030E025C0D1
:1007C000F22FF97FBF2E8F36C1F018F4883579F0FB
:1007D000ADC0803719F0883721F0A8C02F2F2061D5
:1007E000B22EB4FE0DC08B2D8460B82E09C024FF3C
:1007F0000AC09F2F9660B92E06C028E030E005C0E1
:1008000020E130E002C020E132E0F801B7FE07C08D
:1008100060817181828193810C5F1F4F06C060816E
:10082000718180E090E00E5F1F4FA4012ED2A82EB0
:10083000A818FB2DFF77BF2EB6FE0BC02B2D2E7FE9
:10084000A51450F4B4FE0AC0B2FC08C02B2D2E7EB5
:1008500005C07A2C2B2D03C07A2C01C0752C24FFE7
:100860000DC0FE01EA0DF11D8081803311F4297E57
:1008700009C022FF06C07394739404C0822F867847
:1008800009F0739423FD12C020FF06C05A2C731484
:1008900018F4530C5718732C731460F4B70180E2EA
:1008A00090E02C87C0D173942C85F6CF731410F48C
:1008B000371801C0312C24FF11C0B70180E390E04C
:1008C0002C87B1D12C8522FF16C021FF03C088E5FB
:1008D00090E002C088E790E0B7010CC0822F8678D4
:1008E00051F021FD02C080E201C08BE227FD8DE2C4
:1008F000B70190E098D1A51430F4B70180E390E0FF
:1009000092D15A94F8CFAA94F401EA0DF11D808196
:10091000B70190E088D1A110F6CF332009F45DCE65
:10092000B70180E290E07FD13A94F7CFF70186815A
:10093000978102C08FEF9FEF2C960FB6F894DEBF21
:100940000FBECDBFDF91CF911F910F91FF90EF9020
:10095000DF90CF90BF90AF909F908F907F906F90DF
:100960005F904F903F902F9008950F931F93CF93D8
:10097000DF93869F8001879F100D969F100D112495
:10098000C8010DD0EC01009721F0A80160E070E0F3
:1009900038D1CE01DF91CF911F910F910895CF9360
:1009A000DF938230910510F482E090E0E091030340
:1009B000F091040320E030E0A0E0B0E0309739F19E
:1009C0004081518148175907B8F04817590771F409
:1009D00082819381109729F013969C938E9312979E
:1009E0002CC0909304038093030327C02115310585
:1009F00031F04217530718F0A901DB0101C0EF01E4
:100A00009A01BD01DF010280F381E02DD7CF2115CE
:100A10003105F9F0281B390B2430310580F48A8127
:100A20009B816115710521F0FB019383828304C0D2
:100A30009093040380930303FE01329644C0FE01A9
:100A4000E20FF31F81939193225031093983288358
:100A50003AC02091010330910203232B41F42091ED
:100A6000020230910302309302032093010320918C
:100A70000002309101022115310541F42DB73EB736
:100A80004091040250910502241B350BE0910103B3
:100A9000F0910203E217F307A0F42E1B3F0B281777
:100AA000390778F0AC014E5F5F4F2417350748F0E7
:100AB0004E0F5F1F50930203409301038193919364
:100AC00002C0E0E0F0E0CF01DF91CF910895CF9335
:100AD000DF93009709F487C0FC01329713821282DA
:100AE000C0910303D0910403209781F420813181C8
:100AF000280F391F809101039091020382179307F9
:100B000079F5F0930203E09301036DC0DE0120E06C
:100B100030E0AE17BF0750F412964D915C911397D9
:100B20009D014115510509F1DA01F3CFB383A28389
:100B300040815181840F951F8A179B0771F48D9115
:100B40009C911197840F951F029691838083129632
:100B50008D919C911397938382832115310529F4FC
:100B6000F0930403E09303033EC0D9011396FC9372
:100B7000EE9312974D915D91A40FB51FEA17FB07F5
:100B800079F480819181840F951F0296D901119685
:100B90009C938E938281938113969C938E9312974C
:100BA000E0E0F0E08A819B81009719F0FE01EC0102
:100BB000F9CFCE01029628813981820F931F2091AF
:100BC0000103309102032817390769F4309729F49B
:100BD000109204031092030302C013821282D09376
:100BE0000203C0930103DF91CF910895FC010590AA
:100BF000615070400110D8F7809590958E0F9F1F1F
:100C00000895DC0101C06D9341505040E0F7089514
:100C1000FC016150704001900110D8F780959095CB
:100C20008E0F9F1F08950F931F93CF93DF93182F5D
:100C3000092FEB018B8181FD03C08FEF9FEF20C057
:100C400082FF10C04E815F812C813D814217530786
:100C50007CF4E881F9819F012F5F3F4F398328831E
:100C6000108306C0E885F985812F1995892B29F70E
:100C70002E813F812F5F3F4F3F832E83812F902F07
:100C8000DF91CF911F910F910895FA01AA27283083
:100C900051F1203181F1E8946F936E7F6E5F7F4F49
:100CA0008F4F9F4FAF4FB1E03ED0B4E03CD0670FC5
:100CB000781F891F9A1FA11D680F791F8A1F911D18
:100CC000A11D6A0F711D811D911DA11D20D009F468
:100CD00068943F912AE0269F11243019305D3193AA
:100CE000DEF6CF010895462F4770405D4193B3E093
:100CF0000FD0C9F7F6CF462F4F70405D4A3318F03A
:100D0000495D31FD4052419302D0A9F7EACFB4E0EA
:100D1000A6959795879577956795BA95C9F70097A2
:100D20006105710508959B01AC010A2E0694579543
:100D3000479537952795BA95C9F7620F731F841F9A
:0A0D4000951FA01D0895F894FFCF41
:100D4A000000050320000A4944202569094C3A207D
:100D5A00256909444154413A0A00256909000A53A0
:100D6A00454E54204D4553534147453A004D435053
:100D7A005F43414E535441543A2025690A00434186
:100D8A004E20696E697469616C697A65642E0A001D
:100D9A000A52454349564544204D45535341474518
:100DAA003A00496E746572727570743A202569004A
:100DBA004D4350323531355F746573745350490071
:100DCA0056616C7565206F6620693A20256909208D
:100DDA0076616C7565206F66207265673A092569C8
:100DEA000A00526573657474696E67204D43503208
:100DFA0035313500496E697469616C697A696E6763
:100E0A002E2E2E0053504920636F6D6D756E6963E7
:100E1A006174696F6E20696E697469616C697A655B
:040E2A00642E000032
:00000001FF
