S00D00004E6F6465322E737265635F
S113000071C000008EC000008CC000003FC1000021
S113001088C0000086C0000084C0000082C00000C8
S113002080C000007EC000007CC000007AC00000D8
S113003078C0000076C0000074C0000072C00000E8
S113004070C000006EC000006CC000006AC00000F8
S113005068C0000066C0000064C0000062C0000008
S113006060C000005EC000005CC000005AC0000018
S113007058C0000056C0000054C0000052C0000028
S113008050C000004EC000004CC000004AC0000038
S113009048C0000046C0000044C0000042C0000048
S11300A040C000003EC000003CC000003AC0000058
S11300B038C0000036C0000034C0000032C0000068
S11300C030C000002EC000002CC000002AC0000078
S11300D028C0000026C0000024C0000022C0000088
S11300E020C0000011241FBECFEFD1E2DEBFCDBF80
S11300F000E00CBF12E0A0E0B2E0E2EAFCE000E0C5
S11301000BBF02C007900D92A03AB107D9F722E0C5
S1130110A0EAB2E001C01D92A63BB207E1F706D106
S1130120BEC56ECF9093A2028093A1026093A302F6
S1130130662341F084EA92E0FC0111922E2F281BE1
S11301402617D8F30895E6D041E061E08BE2CED0E3
S113015068E088E290E0E6CF0895FF920F931F9342
S1130160CF93DF93EC01F62E062F0295007F2881B2
S11301703981B901759567957595679575956795F5
S113018081E3800F94D068816295660F607E82E37C
S1130190800F8DD06A816F7085E3800F88D08A814B
S11301A0882369F010E00A5CFE01E10FF11D638110
S11301B0802F810F7CD01F5F9A811917A8F381E0EB
S11301C090E002C0880F991FFA94E2F780587ED01D
S11301D08091AB021F928F938091AA021F928F93FA
S11301E08091A9021F928F938091A8021F928F93EE
S11301F08091A7021F928F938091A6021F928F93E2
S11302008091A5021F928F938091A4021F928F93D5
S11302108091A3021F928F93E1EAF2E081818F9390
S113022080818F938EE092E09F938F931ED18DB740
S11302309EB746960FB6F8949EBF0FBE8DBFDF9152
S1130240CF911F910F91FF9008952091A302222333
S113025059F0382FA4EAB2E0E82FF92F81918D9359
S11302608E2F831B8217D0F360E081EA92E075DF62
S11302708091A4021F928F938CE692E09F938F93B8
S1130280F4D00F900F900F900F9008951F920F923B
S11302900FB60F9211248F93F89481E08093A002FB
S11302A078948F910F900FBE0F901F901895CF9355
S11302B0DF93D82FC62F61D082E057D08D2F55D031
S11302C08C2F53D05CD0DF91CF910895CF93C82F5A
S11302D054D021E030E0C90102C0880F991FCA95AB
S11302E0E2F7806842D04BD0CF9108951F93CF930B
S11302F0DF93182FD62FC42F40D085E036D0812F1E
S113030034D08D2F32D08C2F30D039D0DF91CF9193
S11303101F91089536D031D080EC27D030D02DD025
S113032040E460EE8FE0E2DF2AC00895CF93DF93CC
S1130330CDB7DEB728970FB6F894DEBF0FBECDBF9A
S113034087E690E038D080E792E0A0D0FCDE88E039
S1130350E6E0F2E0DE01119601900D928A95E1F754
S1130360CE01019672DF06D0FECF8EBD0DB407FE1E
S1130370FDCF08958FE0F9CF089528980895289A1D
S1130380089587E084B981E58CBDF9DF80E892E0C7
S11303907DC00895E0ECF0E0908195FFFDCF80935F
S11303A0C6000895E0ECF0E080818823ECF78091AA
S11303B0C60090E008959093C5008093C40088E13E
S11303C08093C1008EE08093C20062ED71E08AECFC
S11303D091E001C008950F931F93CF93DF93EC0135
S11303E08B01009731F46115710519F480E090E0F8
S11303F037C06EE070E081E090E063D2FC010097CA
S1130400A9F380E883830115110571F0138702872E
S113041081E883838091AC029091AD02892B21F411
S1130420F093AD02E093AC022097C9F0D187C08766
S11304308381826083838091AE029091AF02892B85
S113044071F4F093AF02E093AE028091B002909108
S1130450B102892B21F4F093B102E093B002CF01F1
S1130460DF91CF911F910F910895CF93DF93CDB773
S1130470DEB7FE01369661917191AF018091AE02B3
S11304809091AF0230D0DF91CF9108950F931F93D5
S1130490CF93DF93E091AE02F091AF02238121FF6D
S11304A01BC0EC0100E010E089916091AE027091F4
S11304B0AF02DB011896ED91FC911997882331F076
S11304C01995892B89F30FEF1FEFEECF8AE0199569
S11304D0892B11F4C80102C08FEF9FEFDF91CF91F8
S11304E01F910F9108952F923F924F925F926F92B6
S11304F07F928F929F92AF92BF92CF92DF92EF92B0
S1130500FF920F931F93CF93DF93CDB7DEB72C9752
S11305100FB6F894DEBF0FBECDBF7C016B018A011C
S1130520FC0117821682838181FFB0C1CE0101963E
S11305304C01F7019381F60193FD859193FF81911D
S11305406F01882309F49EC1853239F493FD8591A6
S113055093FF81916F01853221F4B70190E00FD3AD
S1130560E8CF512C312C20E02032A0F48B3269F0FA
S113057030F4803259F0833269F420612CC08D321A
S113058039F0803339F4216026C02260246023C00E
S1130590286021C027FD27C030ED380F3A3078F4A9
S11305A026FF06C0FAE05F9E300D1124532E13C0BF
S11305B08AE0389E300D1124332E20620CC08E3216
S11305C021F426FD5FC1206406C08C3611F4206836
S11305D002C0883641F4F60193FD859193FF819121
S11305E06F018111C1CF982F9F7D9554933028F4CA
S11305F00C5F1F4FFFE3F9830DC0833631F083375F
S113060071F0833509F057C021C0F80180818983D6
S11306100E5F1F4F44244394512C540114C03801DD
S1130620F2E06F0E711CF801A080B18026FF03C0B8
S1130630652D70E002C06FEF7FEFC5012C8794D267
S11306402C0183012C852F77222E16C03801F2E06D
S11306506F0E711CF801A080B18026FF03C0652DC8
S113066070E002C06FEF7FEFC5012C876BD22C01C5
S11306702C852068222E830123FC19C0832D90E051
S113068048165906A0F4B70180E290E078D23A9473
S1130690F5CFF50127FC859127FE81915F01B70114
S11306A090E06DD231103A94F1E04F1A51084114A0
S11306B0510479F7DEC0843611F0893631F5F8013A
S11306C027FF07C060817181828193810C5F1F4F76
S11306D008C060817181882777FD8095982F0E5F0F
S11306E01F4F2F76B22E97FF09C090958095709575
S11306F061957F4F8F4F9F4F2068B22E2AE030E0E4
S1130700A4016FD2A82EA81843C0853729F42F7EE0
S1130710B22E2AE030E025C0F22FF97FBF2E8F36AB
S1130720C1F018F4883579F0ADC0803719F08837F6
S113073021F0A8C02F2F2061B22EB4FE0DC08B2D46
S11307408460B82E09C024FF0AC09F2F9660B92E7A
S113075006C028E030E005C020E130E002C020E11E
S113076032E0F801B7FE07C0608171818281938114
S11307700C5F1F4F06C06081718180E090E00E5FC6
S11307801F4FA4012ED2A82EA818FB2DFF77BF2E31
S1130790B6FE0BC02B2D2E7FA51450F4B4FE0AC058
S11307A0B2FC08C02B2D2E7E05C07A2C2B2D03C045
S11307B07A2C01C0752C24FF0DC0FE01EA0DF11D39
S11307C08081803311F4297E09C022FF06C073940E
S11307D0739404C0822F867809F0739423FD12C0A9
S11307E020FF06C05A2C731418F4530C5718732C9A
S11307F0731460F4B70180E290E02C87C0D1739445
S11308002C85F6CF731410F4371801C0312C24FF53
S113081011C0B70180E390E02C87B1D12C8522FF71
S113082016C021FF03C088E590E002C088E790E08D
S1130830B7010CC0822F867851F021FD02C080E2FE
S113084001C08BE227FD8DE2B70190E098D1A51499
S113085030F4B70180E390E092D15A94F8CFAA948F
S1130860F401EA0DF11D8081B70190E088D1A11057
S1130870F6CF332009F45DCEB70180E290E07FD15A
S11308803A94F7CFF7018681978102C08FEF9FEFEB
S11308902C960FB6F894DEBF0FBECDBFDF91CF917B
S11308A01F910F91FF90EF90DF90CF90BF90AF908A
S11308B09F908F907F906F905F904F903F902F907C
S11308C008950F931F93CF93DF93869F8001879F93
S11308D0100D969F100D1124C8010DD0EC01009746
S11308E021F0A80160E070E038D1CE01DF91CF9112
S11308F01F910F910895CF93DF938230910510F4E7
S113090082E090E0E091B402F091B50220E030E0A2
S1130910A0E0B0E0309739F1408151814817590780
S1130920B8F04817590771F482819381109729F020
S113093013969C938E9312972CC09093B502809338
S1130940B40227C02115310531F04217530718F0BE
S1130950A901DB0101C0EF019A01BD01DF010280A1
S1130960F381E02DD7CF21153105F9F0281B390B80
S11309702430310580F48A819B816115710521F051
S1130980FB019383828304C09093B5028093B402E5
S1130990FE01329644C0FE01E20FF31F819391934E
S11309A022503109398328833AC02091B202309110
S11309B0B302232B41F420910202309103023093BD
S11309C0B3022093B202209100023091010221155A
S11309D0310541F42DB73EB7409104025091050210
S11309E0241B350BE091B202F091B302E217F30736
S11309F0A0F42E1B3F0B2817390778F0AC014E5F8B
S1130A005F4F2417350748F04E0F5F1F5093B30212
S1130A104093B2028193919302C0E0E0F0E0CF01F1
S1130A20DF91CF910895CF93DF93009709F487C0A6
S1130A30FC01329713821282C091B402D091B502A4
S1130A40209781F420813181280F391F8091B202CF
S1130A509091B3028217930779F5F093B302E09370
S1130A60B2026DC0DE0120E030E0AE17BF0750F4E3
S1130A7012964D915C9113979D014115510509F111
S1130A80DA01F3CFB383A28340815181840F951F90
S1130A908A179B0771F48D919C911197840F951F70
S1130AA002969183808312968D919C9113979383E0
S1130AB082832115310529F4F093B502E093B40241
S1130AC03EC0D9011396FC93EE9312974D915D911C
S1130AD0A40FB51FEA17FB0779F480819181840F75
S1130AE0951F0296D90111969C938E9382819381CE
S1130AF013969C938E931297E0E0F0E08A819B8199
S1130B00009719F0FE01EC01F9CFCE01029628817D
S1130B103981820F931F2091B2023091B3022817BA
S1130B20390769F4309729F41092B5021092B4028F
S1130B3002C013821282D093B302C093B202DF9137
S1130B40CF910895FC010590615070400110D8F7D1
S1130B50809590958E0F9F1F0895DC0101C06D93C1
S1130B6041505040E0F70895FC01615070400190FD
S1130B700110D8F7809590958E0F9F1F08950F93BD
S1130B801F93CF93DF93182F092FEB018B8181FDE6
S1130B9003C08FEF9FEF20C082FF10C04E815F81A2
S1130BA02C813D81421753077CF4E881F9819F0130
S1130BB02F5F3F4F39832883108306C0E885F9856A
S1130BC0812F1995892B29F72E813F812F5F3F4F64
S1130BD03F832E83812F902FDF91CF911F910F910F
S1130BE00895FA01AA27283051F1203181F1E894BF
S1130BF06F936E7F6E5F7F4F8F4F9F4FAF4FB1E00C
S1130C003ED0B4E03CD0670F781F891F9A1FA11D06
S1130C10680F791F8A1F911DA11D6A0F711D811D07
S1130C20911DA11D20D009F468943F912AE0269FCC
S1130C3011243019305D3193DEF6CF010895462F2B
S1130C404770405D4193B3E00FD0C9F7F6CF462F0C
S1130C504F70405D4A3318F0495D31FD4052419375
S1130C6002D0A9F7EACFB4E0A69597958795779532
S1130C706795BA95C9F700976105710508959B01B9
S1130C80AC010A2E06945795479537952795BA9542
S1130C90C9F7620F731F841F951FA01D0895F89450
S1050CA0FFCF80
S1130CA20000B602200001020304050607084944B5
S1130CB2202569204C3A20256920444154413A2098
S1130CC22569202569202569202569202569202593
S1130CD2692025692025690A000A20696E746572F3
S1130CE2727570743A2025690043414E207265631F
S1130CF2656976650043414E5F7472616E736D6916
S1130D02745F636F6D706C6574653A2025690A00BF
S1130D12496E697469616C697A696E672E2E2E0058
S1130D2253504920636F6D6D756E69636174696FA9
S1130D326E20696E697469616C697A65642E00005B
S9030000FC
