:1000000071C000008EC000008CC000008AC00000DB
:1000100088C00000EFC0000084C0000082C0000063
:1000200080C000007EC000007CC000007AC00000DC
:1000300078C0000076C0000074C0000072C00000EC
:1000400070C000006EC000006CC000006AC00000FC
:1000500068C0000066C0000064C0000062C000000C
:1000600060C000005EC000005CC000005AC000001C
:1000700058C0000056C0000054C0000052C000002C
:1000800050C000004EC000004CC000004AC000003C
:1000900048C0000046C0000044C0000042C000004C
:1000A00040C000003EC000003CC000003AC000005C
:1000B00038C0000036C0000034C0000032C000006C
:1000C00030C000002EC000002CC000002AC000007C
:1000D00028C0000026C0000024C0000022C000008C
:1000E00020C0000011241FBECFEFD1E2DEBFCDBF84
:1000F00000E00CBF12E0A0E0B2E0EAEEFDE000E0BC
:100100000BBF02C007900D92A63CB107D9F722E0C1
:10011000A6ECB2E001C01D92A73EB207E1F78ED176
:1001200062C66ECF9093C8028093C7026093C902E3
:10013000662341F08AEC92E0FC0111922E2F281BDD
:100140002617D8F30895FF920F931F93CF93DF9351
:10015000EC01F62E062F0295007F28813981B90126
:1001600075956795759567957595679581E3800F8A
:100170000DD168816295660F607E82E3800F06D1A3
:100180006A816F7085E3800F01D18A81882369F0CD
:1001900010E00A5CFE01E10FF11D6381802F810FE9
:1001A000F5D01F5F9A811917A8F381E090E002C093
:1001B000880F991FFA94E2F7805804D1DF91CF910C
:1001C0001F910F91FF9008952091C902222359F0A9
:1001D000382FAAECB2E0E82FF92F81918D938E2F62
:1001E000831B8217D0F360E087EC92E0ACCF0895D8
:1001F000DCC008951F920F920FB60F9211240BB618
:100200000F922F933F934F935F936F937F938F93AF
:100210009F93AF93BF93EF93FF9381E08093C602C8
:100220002FEF81EE94E0215080409040E1F700C034
:10023000000040E06FEF8CE2D5D0FF91EF91BF91CD
:10024000AF919F918F917F916F915F914F913F916E
:100250002F910F900BBE0F900FBE0F901F9018950F
:10026000F8946C98EAE6F0E080818E7F808380814C
:100270008D7F8083EC9A78940895CF93DF931F92BB
:10028000CDB7DEB7CBD04FEF64E680E6ABD041E030
:1002900061E08BE2A7D040E460EE8FE0A3D068E09D
:1002A00088E290E03FDF8EE080D0898389811F92D1
:1002B0008F938EE092E09F938F937BD1D1DF8FE17C
:1002C00092E088D10F900F900F900F900F90DF91D8
:1002D000CF910895CF93DF931F92CDB7DEB78CE215
:1002E00064D08983898181FD0CC0898182FD09C028
:1002F0008CE25BD08983898181FD03C0898182FF83
:10030000F7CF898181FD05C0898182FF04C081E02A
:1003100003C080E001C08FEF0F90DF91CF9108956F
:100320001F93CF93DF938091C602882359F1D2DFC8
:10033000C82FC295C07F82E68C0F5ADF81E68C0FF2
:1003400057DF28E0829FC00111249093D30280934D
:10035000D20285E68C0F4CDF8F708093D402882305
:1003600079F010E0C4EDD2E086E6810F41DFE12FA5
:10037000F0E0EE52FD4F83831F5F88811817A0F3D2
:100380001092C602DF91CF911F910895CF93DF9312
:10039000D82FC62F94D082E086D08D2F84D08C2F7A
:1003A00082D08FD0DF91CF910895CF93C82F87D07F
:1003B00083E079D08C2F77D07BD0C82F82D08C2F40
:1003C000CF910895CF93C82F7AD021E030E0C901B2
:1003D00002C0880F991FCA95E2F7806864D071D077
:1003E000CF9108951F93CF93DF93182FD62FC42F4B
:1003F00066D085E058D0812F56D08D2F54D08C2FC9
:1004000052D05FD0DF91CF911F91089583E692E0A3
:10041000E1D055D080EC47D054C0089554D0F6DFD9
:100420008EE0C3DF1F928F9385E792E09F938F93B7
:10043000C0D00F900F900F900F900895CF93DF933F
:10044000CDB7DEB728970FB6F894DEBF0FBECDBF8D
:1004500087E690E054D085E892E0BCD00EDF88E0DB
:10046000E6E0F2E0DE01119601900D928A95E1F747
:10047000789485E992E0AED0CE010196A5DE2FEF0B
:1004800081EE94E0215080409040E1F700C00000F0
:1004900047DF2FEF83EC99E0215080409040E1F757
:1004A00000C00000E6CF8EBD0DB407FEFDCF08955D
:1004B00080E0F9DF0DB407FEFDCF8EB508952F98CB
:1004C00008952F9A089584B1876884B98CB58165A1
:1004D0008CBDF7DF86EA92E07DC00895E0ECF0E0A5
:1004E000908195FFFDCF8093C6000895E0ECF0E089
:1004F00080818823ECF78091C60090E00895909366
:10050000C5008093C40088E18093C1008EE0809391
:10051000C20066E772E08EE692E001C008950F9394
:100520001F93CF93DF93EC018B01009731F461159A
:10053000710519F480E090E037C06EE070E081E072
:1005400090E063D2FC010097A9F380E88383011552
:10055000110571F01387028781E883838091DD02A2
:100560009091DE02892B21F4F093DE02E093DD020C
:100570002097C9F0D187C08783818260838380916F
:10058000DF029091E002892B71F4F093E002E09396
:10059000DF028091E1029091E202892B21F4F09335
:1005A000E202E093E102CF01DF91CF911F910F9121
:1005B0000895CF93DF93CDB7DEB7FE0136966191F4
:1005C0007191AF018091DF029091E00230D0DF9114
:1005D000CF9108950F931F93CF93DF93E091DF02A4
:1005E000F091E002238121FF1BC0EC0100E010E04C
:1005F00089916091DF027091E002DB011896ED9124
:10060000FC911997882331F01995892B89F30FEF05
:100610001FEFEECF8AE01995892B11F4C80102C0B3
:100620008FEF9FEFDF91CF911F910F9108952F9240
:100630003F924F925F926F927F928F929F92AF9272
:10064000BF92CF92DF92EF92FF920F931F93CF93BF
:10065000DF93CDB7DEB72C970FB6F894DEBF0FBE91
:10066000CDBF7C016B018A01FC0117821682838158
:1006700081FFB0C1CE0101964C01F7019381F601D3
:1006800093FD859193FF81916F01882309F49EC1A9
:10069000853239F493FD859193FF81916F01853205
:1006A00021F4B70190E00FD3E8CF512C312C20E09A
:1006B0002032A0F48B3269F030F4803259F083326A
:1006C00069F420612CC08D3239F0803339F4216017
:1006D00026C02260246023C0286021C027FD27C0D7
:1006E00030ED380F3A3078F426FF06C0FAE05F9E0E
:1006F000300D1124532E13C08AE0389E300D112482
:10070000332E20620CC08E3221F426FD5FC120649E
:1007100006C08C3611F4206802C0883641F4F60118
:1007200093FD859193FF81916F018111C1CF982F26
:100730009F7D9554933028F40C5F1F4FFFE3F9839E
:100740000DC0833631F0833771F0833509F057C01F
:1007500021C0F801808189830E5F1F4F4424439498
:10076000512C540114C03801F2E06F0E711CF801D5
:10077000A080B18026FF03C0652D70E002C06FEF3E
:100780007FEFC5012C8794D22C0183012C852F7714
:10079000222E16C03801F2E06F0E711CF801A08005
:1007A000B18026FF03C0652D70E002C06FEF7FEFC0
:1007B000C5012C876BD22C012C852068222E830149
:1007C00023FC19C0832D90E048165906A0F4B70108
:1007D00080E290E078D23A94F5CFF50127FC85913C
:1007E00027FE81915F01B70190E06DD231103A94FC
:1007F000F1E04F1A51084114510479F7DEC08436F4
:1008000011F0893631F5F80127FF07C06081718149
:10081000828193810C5F1F4F08C06081718188279E
:1008200077FD8095982F0E5F1F4F2F76B22E97FF82
:1008300009C090958095709561957F4F8F4F9F4F20
:100840002068B22E2AE030E0A4016FD2A82EA818AA
:1008500043C0853729F42F7EB22E2AE030E025C030
:10086000F22FF97FBF2E8F36C1F018F4883579F05A
:10087000ADC0803719F0883721F0A8C02F2F206134
:10088000B22EB4FE0DC08B2D8460B82E09C024FF9B
:100890000AC09F2F9660B92E06C028E030E005C040
:1008A00020E130E002C020E132E0F801B7FE07C0ED
:1008B00060817181828193810C5F1F4F06C06081CE
:1008C000718180E090E00E5F1F4FA4012ED2A82E10
:1008D000A818FB2DFF77BF2EB6FE0BC02B2D2E7F49
:1008E000A51450F4B4FE0AC0B2FC08C02B2D2E7E15
:1008F00005C07A2C2B2D03C07A2C01C0752C24FF47
:100900000DC0FE01EA0DF11D8081803311F4297EB6
:1009100009C022FF06C07394739404C0822F8678A6
:1009200009F0739423FD12C020FF06C05A2C7314E3
:1009300018F4530C5718732C731460F4B70180E249
:1009400090E02C87C0D173942C85F6CF731410F4EB
:10095000371801C0312C24FF11C0B70180E390E0AB
:100960002C87B1D12C8522FF16C021FF03C088E55A
:1009700090E002C088E790E0B7010CC0822F867833
:1009800051F021FD02C080E201C08BE227FD8DE223
:10099000B70190E098D1A51430F4B70180E390E05E
:1009A00092D15A94F8CFAA94F401EA0DF11D8081F6
:1009B000B70190E088D1A110F6CF332009F45DCEC5
:1009C000B70180E290E07FD13A94F7CFF7018681BA
:1009D000978102C08FEF9FEF2C960FB6F894DEBF81
:1009E0000FBECDBFDF91CF911F910F91FF90EF9080
:1009F000DF90CF90BF90AF909F908F907F906F903F
:100A00005F904F903F902F9008950F931F93CF9337
:100A1000DF93869F8001879F100D969F100D1124F4
:100A2000C8010DD0EC01009721F0A80160E070E052
:100A300038D1CE01DF91CF911F910F910895CF93BF
:100A4000DF938230910510F482E090E0E091E502BE
:100A5000F091E60220E030E0A0E0B0E0309739F11C
:100A60004081518148175907B8F04817590771F468
:100A700082819381109729F013969C938E931297FD
:100A80002CC09093E6028093E50227C02115310522
:100A900031F04217530718F0A901DB0101C0EF0143
:100AA0009A01BD01DF010280F381E02DD7CF21152E
:100AB0003105F9F0281B390B2430310580F48A8187
:100AC0009B816115710521F0FB019383828304C032
:100AD0009093E6028093E502FE01329644C0FE0147
:100AE000E20FF31F819391932250310939832883B8
:100AF0003AC02091E3023091E402232B41F420918B
:100B00000202309103023093E4022093E302209129
:100B10000002309101022115310541F42DB73EB795
:100B20004091040250910502241B350BE091E30231
:100B3000F091E402E217F307A0F42E1B3F0B2817F5
:100B4000390778F0AC014E5F5F4F2417350748F046
:100B50004E0F5F1F5093E4024093E3028193919301
:100B600002C0E0E0F0E0CF01DF91CF910895CF9394
:100B7000DF93009709F487C0FC0132971382128239
:100B8000C091E502D091E602209781F42081318165
:100B9000280F391F8091E3029091E4028217930796
:100BA00079F5F093E402E093E3026DC0DE0120E00A
:100BB00030E0AE17BF0750F412964D915C91139739
:100BC0009D014115510509F1DA01F3CFB383A283E9
:100BD00040815181840F951F8A179B0771F48D9175
:100BE0009C911197840F951F029691838083129692
:100BF0008D919C911397938382832115310529F45C
:100C0000F093E602E093E5023EC0D9011396FC930F
:100C1000EE9312974D915D91A40FB51FEA17FB0754
:100C200079F480819181840F951F0296D9011196E4
:100C30009C938E938281938113969C938E931297AB
:100C4000E0E0F0E08A819B81009719F0FE01EC0161
:100C5000F9CFCE01029628813981820F931F20910E
:100C6000E3023091E4022817390769F4309729F438
:100C70001092E6021092E50202C013821282D09313
:100C8000E402C093E302DF91CF910895FC01059047
:100C9000615070400110D8F7809590958E0F9F1F7E
:100CA0000895DC0101C06D9341505040E0F7089574
:100CB000FC016150704001900110D8F7809590952B
:100CC0008E0F9F1F08950F931F93CF93DF93182FBD
:100CD000092FEB018B8181FD03C08FEF9FEF20C0B7
:100CE00082FF10C04E815F812C813D8142175307E6
:100CF0007CF4E881F9819F012F5F3F4F398328837E
:100D0000108306C0E885F985812F1995892B29F76D
:100D10002E813F812F5F3F4F3F832E83812F902F66
:100D2000DF91CF911F910F910895FA01AA272830E2
:100D300051F1203181F1E8946F936E7F6E5F7F4FA8
:100D40008F4F9F4FAF4FB1E03ED0B4E03CD0670F24
:100D5000781F891F9A1FA11D680F791F8A1F911D77
:100D6000A11D6A0F711D811D911DA11D20D009F4C7
:100D700068943F912AE0269F11243019305D319309
:100D8000DEF6CF010895462F4770405D4193B3E0F2
:100D90000FD0C9F7F6CF462F4F70405D4A3318F099
:100DA000495D31FD4052419302D0A9F7EACFB4E04A
:100DB000A6959795879577956795BA95C9F7009702
:100DC0006105710508959B01AC010A2E06945795A3
:100DD000479537952795BA95C9F7620F731F841FFA
:0A0DE000951FA01D0895F894FFCFA1
:100DEA000000E7022000010A0304050607084D4334
:100DFA00505F43414E535441543A2025690A0043F7
:100E0A00414E20696E697469616C697A65642E0A5B
:100E1A00004D4350323531355F7465737453504910
:100E2A000056616C7565206F6620693A202569094C
:100E3A002076616C7565206F66207265673A0925B0
:100E4A00690A00526573657474696E67204D435070
:100E5A0032353135004D4350207374617475733ADD
:100E6A002025690A00496E697469616C697A696E3C
:100E7A00672E2E2E0053656E64696E67206D65734A
:100E8A0073616765210053504920636F6D6D756EFC
:100E9A0069636174696F6E20696E697469616C69EE
:060EAA007A65642E0000D1
:00000001FF
