S01E00004F76696E67315F54544B343135355F4731375F4831372E7372656394
S113000009C200005FC2000080C20000C2C200003A
S11300101DC200001BC2000019C2000017C200006C
S113002015C2000013C2000011C200000FC200007C
S11300300DC200000BC2000009C2000007C200008C
S11300400C941D0C03C2000001C20000FFC100009B
S1130050FDC10000FBC10000F9C10000F7C10000B0
S1130060F5C10000F3C10000F1C10000EFC10000C0
S1130070880083007E0078005249474854004C456C
S1130080465400444F574E00555000486F6C64204E
S11300904A6F79737469636B004C657420676F00F1
S11300A0557365206C65667420736C6964657200B1
S11300B02D3E525F42544E0043616C69627261741A
S11300C065006669742073637265656E00436F6EC4
S11300D07472617374004D75736963004F70746951
S11300E06F6E73004465627567004869676873637F
S11300F06F726500000000000000000000065F5FF2
S1130100060000000007070007070000147F7F14A3
S11301107F7F1400242E6B6B3A1200004666301861
S11301200C666200307A4F5D377A4800040703009A
S113013000000000001C3E63410000000041633EDB
S11301401C000000082A3E1C1C3E2A0808083E3EEB
S11301500808000000A0E06000000000080808088B
S11301600808000000006060000000006030180C07
S1130170060301003E7F594D7F3E000042427F7FCF
S113018040400000627359496F6600002263494988
S11301907F360000181C16137F7F10002767454523
S11301A07D3900003C7E4B497930000003637119AE
S11301B00F070000367F49497F360000064F496922
S11301C03F1E000000006C6C0000000000A0EC6CFE
S11301D000000000081C36634100000014141414CD
S11301E014140000004163361C0800000203515936
S11301F00F0600003E7F415D5D1F1E007C7E1313D1
S11302007E7C0000417F7F49497F36001C3E63416C
S113021041632200417F7F41637F1C00417F7F490E
S11302205D416300417F7F491D0103001C3E634122
S1130230517372007F7F08087F7F000000417F7F39
S113024041000000307040417F3F0100417F7F0842
S11302501C776300417F7F41406070007F7F060C04
S1130260067F7F007F7F060C187F7F001C3E634162
S1130270633E1C00417F7F49090F06001E3F217128
S11302807F5E0000417F7F19396F460026674D5914
S11302907B32000003417F7F410300007F7F4040A9
S11302A07F7F00001F3F60603F1F00007F7F30188A
S11302B0307F7F0063771C081C776300074F7878D2
S11302C04F0700006773594D47637100007F7F41FA
S11302D0410000000103060C183060000041417F1A
S11302E07F000000080C0603060C08008080808054
S11302F080808080000003070400000020745454B0
S11303003C784000413F7F44447C3800387C44447E
S11303106C280000307848493F7F4000387C5454B2
S11303205C180000487E7F490302000098BCA4A426
S1130330F87C0400417F7F08047C780000447D7DC4
S11303404000000040C484FD7D000000417F7F1018
S1130350386C440000417F7F400000007C7C0C1816
S11303600C7C78007C7C04047C780000387C444459
S11303707C38000084FCF8A4243C1800183C24A415
S1130380F8FC8400447C78441C180000485C5454F5
S11303907424000000043E7F442400003C7C404060
S11303A03C7C40001C3C60603C1C00003C7C603099
S11303B0607C3C00446C3810386C44009CBCA0A0A9
S11303C0FC7C00004C64745C4C64000008083E77BC
S11303D04141000000000077770000004141773E72
S11303E00808000002030103020301006686B070DE
S11303F070B08666007E424242427E00007E7E7E6F
S11304007E7E7E00FF8080808080808001010101EB
S1130410010101FF11241FBECFEFD4E0DEBFCDBF29
S113042012E0A0E0B1E0EEE0F6E202C005900D9229
S1130430A23BB107D9F723E0A2EBB2E001C01D92C1
S1130440A434B207E1F789D30C940513D9CD8230D3
S1130450910571F01CF4019739F01CC083309105AB
S113046059F0049769F016C084E1809300140BC01E
S113047085E18093001407C086E18093001403C0D3
S113048087E18093001482E58A95F1F78091001446
S113049090E0089580E090E00895BA9ABB9A85B7F9
S11304A0816085BF85B7826085BF85B7846085BF5D
S11304B085B7886085BF8BB780648BBF8BB7806836
S11304C08BBF08951F920F920FB60F9211242F9392
S11304D03F934F935F936F937F938F939F93AF93C8
S11304E0BF93EF93FF9314D4FF91EF91BF91AF911A
S11304F09F918F917F916F915F914F913F912F9138
S11305000F900FBE0F901F9018951F920F920FB669
S11305100F9211242F933F934F935F936F937F9385
S11305208F939F93AF93BF93EF93FF93EDD3FF917B
S1130530EF91BF91AF919F918F917F916F915F9157
S11305404F913F912F910F900FBE0F901F901895D0
S11305509093B4028093B3026093B502662341F092
S113056086EB92E0FC0111922E2F281B2617D8F35C
S1130570089510D386B78E7F86BF8BB780628BBFFA
S113058041E061E08BE2F2D268E088E290E0E0CF03
S113059008951F920F920FB60F9211248F93F8941F
S11305A081E08093B20278948F910F900FBE0F90E8
S11305B01F9018950F931F93CF93DF93C4E6D0E059
S11305C00091C8021091C90281E090E040DF015817
S11305D01F4F081B190B1093C9020093C802009106
S11305E0C6021091C70282E090E031DF01581F4F2C
S11305F0081B190B1093C7020093C602219720977A
S1130600F9F68091C8029091C90224E630E0B9015C
S11306100E94560E7093C9026093C8028091C6026C
S11306209091C702B9010E94560E7093C70260935D
S1130630C602DF91CF911F910F9108952F923F929F
S11306404F925F926F927F928F929F92AF92BF92DE
S1130650CF92DF92EF92FF920F931F93CF93DF938A
S113066000D000D000D0CDB7DEB73C017A836983D7
S11306705C834B833E832D8318018501B901882750
S113068077FD8095982F0E94430D4B015C01B301C7
S11306906E0D7F1D29813A81621B730B882777FDBC
S11306A08095982F0E94430D2B013C01B1018D814F
S11306B09E81681B790B882777FD8095982F0E946F
S11306C0430D9B01AC01C301B2010E94F30D2B0148
S11306D03C016B817C81E981FA816E1B7F0B882749
S11306E077FD8095982F0E94430D9B01AC01C301B7
S11306F0B2010E94A80C9B01AC01C501B4010E9487
S1130700400C0E94100DC101801B910B68177907E2
S113071074F58D819E81800F911F861797074CF584
S1130720F80111230CF43196F595E795D80112C020
S11307308A0F9B1FAC014E0F5F1F6417750714F0DF
S113074069010BC0C6018E1B9F0B8617970714F017
S1130750C01AD10AC601801B910B9601200F311FCC
S1130760621773072CF78617970714F704C0610103
S113077002C0CD80DE80C60126960FB6F894DEBF97
S11307800FBECDBFDF91CF911F910F91FF90EF90DE
S1130790DF90CF90BF90AF909F908F907F906F909D
S11307A05F904F903F902F900895AF92BF92CF9259
S11307B0DF92EF92FF920F931F93823509F46EC07C
S11307C020F48C3409F44AC089C0883519F089357D
S11307D019F184C0C090C402D090C502E090C80250
S11307E0F090C90281E090E032DE0F2EFAE0AF2EE5
S11307F0B12CF02D04E610E02CE93FEF4FEF50E070
S113080060E070E01BDF9093C5028093C402809186
S1130810C4029091C50264C0C090C202D090C302C9
S1130820E090C602F090C70282E090E010DE0F2E46
S1130830FAE0AF2EB12CF02D04E610E02CE93FEFE6
S11308404FEF50E060E070E0F9DE9093C3028093D4
S1130850C2028091C2029091C30242C0C090C00201
S1130860D090C10283E090E0F2DD0F2EFAE0AF2ECB
S1130870B12CF02DE12CF12C04E610E020E030E066
S11308804FEF50E060E070E0D9DE9093C1028093B6
S1130890C0028091C0029091C10222C0C090BE02E9
S11308A0D090BF0284E090E0D2DD0F2EFAE0AF2EAC
S11308B0B12CF02DE12CF12C04E610E020E030E026
S11308C04FEF50E060E070E0B9DE9093BF02809398
S11308D0BE028091BE029091BF0202C080E090E00F
S11308E01F910F91FF90EF90DF90CF90BF90AF904A
S11308F0089560DE88E559DF9093C5028093C402B1
S113090089E553DF9093C3028093C2028CE44DDFE8
S11309109093C1028093C00282E547DF9093BF02A7
S11309208093BE022091C6023091C7028091C80212
S11309309091C9023F932F939F938F938CE091E002
S11309409F938F930E940C0F6091BE027091BF021F
S11309504091C0025091C1022091C2023091C30261
S11309608091C4029091C5027F936F935F934F93DC
S11309703F932F939F938F9385E391E09F938F935E
S11309800E940C0F8DB79EB740960FB6F8949EBF89
S11309900FBE8DBF089521E030E049E050E06DE3E3
S11309A070E088E190E0E8D421E030E047E250E0F4
S11309B061E070E089E090E0DFD42DE030E044E2D3
S11309C050E061E070E087E290E0D6D42DE030E0C2
S11309D042E150E06DE070E084E290E0CDD425E2A5
S11309E030E048E150E06DE070E082E190E0C4D492
S11309F029E130E04BE150E065E270E088E190E00D
S1130A00BBD429E130E041E250E069E170E08BE1E0
S1130A1090E0B2D42DE330E048E150E069E170E0C9
S1130A2081E290E0A9D421E045E46DE38BE3ADD607
S1130A3021E030E047E750E06DE370E088E690E0C5
S1130A409BD421E030E047E750E061E070E089E5C5
S1130A5090E092D42DE030E04CE550E061E070E0AD
S1130A6089E590E089D42DE030E04EE650E06DE079
S1130A7070E08CE590E080D429E130E04BE650E072
S1130A806DE070E08EE690E077D429E130E04FE548
S1130A9050E069E170E08BE690E06ED425E230E04E
S1130AA042E650E069E170E08FE590E065D425E22C
S1130AB030E048E650E065E270E082E690E05CD425
S1130AC021E330E045E650E065E270E088E690E03E
S1130AD053D42DE330E048E650E061E370E085E66E
S1130AE090E04AD486D52FEF8FEF9EE021508040CE
S1130AF09040E1F700C000000895F8948FE190E081
S1130B00B4D681E492E09F938F938AE492E09F931A
S1130B108F9386E592E09F938F938BE592E09F936A
S1130B208F930E940C0F85B7806885BF80B7806261
S1130B3080BFF2D267D52FDF5CD538D0DADEADDCEA
S1130B408CE361D616DD78948DB79EB708960FB600
S1130B50F8949EBF0FBE8DBF0895CFDF87E090E06D
S1130B6093D281EA92E0AFD305D2FECF1F93CF9305
S1130B70DF93182FD62FC42F39D685E033D6812F93
S1130B8031D68D2F2FD68C2F2DD632D6DF91CF9103
S1130B901F9108952FD62AD680EC24D629D626D69E
S1130BA040E460EE8FE0E2DF23C60895CF93DF9345
S1130BB0C3E2D3E0D0930A03C093090310920C0359
S1130BC010920B0310920E0310920D03E5E0F3E074
S1130BD08AEE90E09183808383E090E09093080311
S1130BE08093070327ED32E03093280320932703F3
S1130BF06FE073E070932A036093290310922C032F
S1130C0010922B0344EE50E05983488390932603BB
S1130C1080932503F093DC02E093DB02C1EFD2E082
S1130C20D093DE02C093DD021092E0021092DF0244
S1130C304CED50E0D9014D935C939093DA0280938C
S1130C40D9022BEF32E03093F6022093F502109292
S1130C50F8021092F702F093FA02E093F90286ED9B
S1130C6090E09983888382E090E09093F4028093EB
S1130C70F302D0930003C093FF0210920203109278
S1130C800103F0930403E09303034DEC50E0D90116
S1130C904D935C939093FE028093FD02C9E1D3E0EF
S1130CA0D0931403C09313031092160310921503E8
S1130CB0F0931803E093170322EC30E0DB012D934B
S1130CC03C93909312038093110370931E036093DB
S1130CD01D031092200310921F03F0932203E0934C
S1130CE0210328EB30E03983288390931C038093FD
S1130CF01B03F093D402E093D302F093D602E09363
S1130D00D502DF91CF91089581E08093CC020895BC
S1130D1081E08093CD02089580E090E0B5D160EA4F
S1130D2070E081EE92E00E94BB0E81EE92E0CBD2A5
S1130D3081E086D482E090E0A7D160EB70E081EEA0
S1130D4092E00E94BB0E81EE92E0BDD252D480911B
S1130D50CD0281110CC081E866D183E090E077DB9D
S1130D609695879560D18091CD028823A1F3109246
S1130D70CD0208950F931F93CF93DF93C0E08C2F80
S1130D805FD4CF5FC730D9F780E090E07DD169E9C7
S1130D9070E081EE92E0EFD781EE92E094D282E0AF
S1130DA090E072D160EB70E081EE92E0E4D781EEE6
S1130DB092E089D21ED48091CD0281110AC08CECBC
S1130DC094E00197F1F700C000008091CD028823E0
S1130DD0B1F31092CD0280E090E07ED16BE870E038
S1130DE081EE92E0C8D781EE92E06DD2C0E7D0E008
S1130DF008E710E081E090E06FD1FE016591749105
S1130E0081EE92E0B8D781EE92E05DD2F2D3809188
S1130E10CD0281110AC08CEC94E00197F1F700C077
S1130E2000008091CD028823B1F31092CD02229666
S1130E30C017D107F9F6DF91CF911F910F91089553
S1130E408091D5029091D60222E08B3F920711F453
S1130E5063CF08958951934009F48CCF089589E5AF
S1130E60A4DC873491054CF12091CA023091CB0265
S1130E702734310514F5E091D502F091D602828130
S1130E8093810197181619068CF480E090E0048091
S1130E90F581E02D01962281338121503109821799
S1130EA09307ACF3F093D602E093D50284E690E086
S1130EB09093CB028093CA0225C08A3B2FEF9207FE
S1130EC0C4F42091CA023091CB022A3B3F4F8CF0EC
S1130ED0E091D502F091D602848195819093D60257
S1130EE08093D5028CE99FEF9093CB028093CA0242
S1130EF009C08B5B9F4F8B38910520F41092CB0275
S1130F001092CA028091CD028130A9F41092CD02D0
S1130F10E091D502F091D60286819781009749F03D
S1130F209093D4028093D3029093D6028093D502F7
S1130F301EC086DF1CC08091CC028130C1F41092A7
S1130F40CC02E091D502F091D6028085918500977C
S1130F5071F0E091D302F091D40220853185309371
S1130F60D4022093D3029093D6028093D50280E0DA
S1130F7090E008950F931F93CF93DF9370DF892B35
S1130F8009F044C0C0E08C2F5BD3CF5FC730D9F7E2
S1130F90E091D302F091D40282819381181619064C
S1130FA0ACF5C0E0D0E010E801E8CE016DD080E0FF
S1130FB090E08BD0E091D302F091D40260817181F2
S1130FC081EE92E0D8D62091D3023091D402809160
S1130FD0D5029091D6022817390711F4802F01C049
S1130FE0812F25D181EE92E06ED1E091D302F09170
S1130FF0D4020480F581E02DF093D402E093D3026F
S1131000219682819381C817D9077CF210D4882352
S113101029F0EFD20FD461E087E03AD3DF91CF918A
S11310201F910F910895E0910A01F0910B018083C3
S113103008951092D2021092D1021092D00210920E
S1131040CF02E0910A01F0910B0181E28083E091EB
S11310500A01F0910B011082E0910A01F0910B0159
S11310608FE78083E0910A01F0910B0182E2808393
S1131070E0910A01F0910B011082E0910A01F091D4
S11310800B0187E080830895CF93DF93EC01D1DFD8
S1131090D093D202C093D102CE0187709927892BB5
S11310A089F0E0910A01F0910B011082E0910A01AC
S11310B0F0910B0180E18083C06BE0910A01F09113
S11310C00B01C083DF91CF9108958F779927909377
S11310D0D0028093CF020895CF93DF93EC01D4DF45
S11310E0289750F480E890E0E0910801F09109011C
S11310F0108201970097C1F7DF91CF910895CF93A4
S1131100DF93C0E0D0E0CE01E7DF2196C830D105FF
S1131110D1F7DF91CF91089585B7806885BF80B7F7
S1131120806280BFE0910A01F0910B018EEA808316
S1131130E0910A01F0910B0181EA8083E0910A01B8
S1131140F0910B018AED8083E0910A01F0910B018B
S113115082E18083E0910A01F0910B0188EC8083A5
S1131160E0910A01F0910B0188EA8083E0910A0181
S1131170F0910B018FE38083E0910A01F0910B0160
S113118085ED8083E0910A01F0910B0180E8808372
S1131190E0910A01F0910B0181E88083E0910A015A
S11311A0F0910B0180E58083E0910A01F0910B013D
S11311B089ED8083E0910A01F0910B0181E2808343
S11311C0E0910A01F0910B0180E28083E0910A0131
S11311D0F0910B011082E0910A01F0910B018BED6B
S11311E08083E0910A01F0910B0180E38083E09118
S11311F00A01F0910B018DEA8083E0910A01F091DC
S11312000B011082E0910A01F0910B0184EA8083C2
S1131210E0910A01F0910B0186EA8083E0910A01D2
S1131220F0910B018FEA80836ADF03CF08958A303F
S113123089F48091D1029091D20201968770992706
S11312409093D2028093D1021092D0021092CF02D6
S113125081E00895882399F1E82FF0E0EE0FFF1F55
S1131260EE0FFF1FEE0FFF1FEC50F04080E090E008
S1131270A091D102B091D202B695BA2FAA27B79500
S1131280A7952091CF023091D002A20FB31F2091D5
S1131290060130910701A20FB31F24912C932091D2
S11312A0CF023091D0022F5F3F4F3093D002209372
S11312B0CF020196319688309105D1F602C080E0C4
S11312C0089581E00895CF93DF93EC018991AFDF16
S11312D08111FCCFDF91CF91089587709078992385
S11312E024F40197886F9F6F0196FC01F695FE2FF9
S11312F0EE27F795E7956F777078772334F461508C
S1131300710960687F6F6F5F7F4F6E0F7F1FE09181
S11313100601F0910701E60FF71F8081482B4083F7
S113132008958038910520F56034710518F59B0106
S113133027703078332334F421503109286F3F6FFC
S11313402F5F3F4F41E050E002C0440F551F2A95E4
S1131350E2F7FB01FF230CF43796BC01CF0195950E
S113136087959595879595958795B7DF81E008953D
S113137080E0089580E008952F923F924F925F920B
S11313806F927F928F929F92AF92BF92CF92DF9291
S1131390EF92FF920F931F93CF93DF93CDB7DEB7F6
S11313A060970FB6F894DEBF0FBECDBF1C017A87DD
S11313B069875C874B8738872F83481759070CF454
S11313C0AEC08417950709F484C0B90129853A850C
S11313D0621B730B882777FD8095982F54D36B017C
S11313E07C016B857C8562197309882777FD80955C
S11313F0982F49D39B01AC01C701B601A9D26B83D5
S11314007C838D839E83B101882777FD8095982FF7
S11314103AD369837A83E82EF92EEB85FC85BF01E4
S1131420882777FD8095982F2ED34B015C019B0173
S1131430AC0169817A818E2D9F2D86D288230CF090
S113144048C01981CA800F2D29853A85290166244F
S113145057FC6094762C3E862D862E2C3F2CC88A11
S1131460EF8629813A81422D532D612F78898F850A
S1131470902F05D22B813C814D815E81B4D36B01C9
S11314807C01C301B201FFD29B01AC01C701B601CB
S1131490F7D1C6D26B017C01612F78898F85902F9B
S11314A0BFD2DC01CB01B6013CDF2DEC3CEC4CECB3
S11314B05DE3612F78898F85902FE2D1162F788B89
S11314C08F87092FA50194013FD2882354F22D84DC
S11314D03E8489859A85EF81F885E817F90734F405
S11314E099858A85FA87E9879F8388872B853C8538
S11314F02216330609F042C0F98469857A85772774
S11315008F81988568177907CCF58C01C10109DFB3
S1131510F3946F2D70E060177107C4F32FC06985D1
S11315207A85EF81F8856E1B7F0B882777FD809580
S1131530982FA9D26B017C01B1012B853C85621BDC
S1131540730B882777FD8095982F9DD29B01AC0162
S1131550C701B601FDD16B837C838D839E839985FE
S11315608A85EF81F885FA87E9879F838887922D9A
S1131570832D2B843C849B878C8745CF60960FB644
S1131580F894DEBF0FBECDBFDF91CF911F910F91B5
S1131590FF90EF90DF90CF90BF90AF909F908F908F
S11315A07F906F905F904F903F902F900895CF93CE
S11315B0DF93C82FD0E0CE0167DDCE019695982F3A
S11315C08827979587959C0120583F4FE091060105
S11315D0F0910701E80FF91F4081E0910801F091B3
S11315E00901408301968217930781F7DF91CF9118
S11315F00895CF93C0E08C2FDADFCF5FC830D9F7DE
S1131600CF91089540E050E070E060E014C09C0188
S1131610240F351FE0910601F0910701E20FF31F3B
S1131620108201968038910591F740585F4F41151B
S113163084E0580719F0872F962FE9CFDACF089561
S1131640CF93C82F90E020DDC83000F580E8C89F14
S113165090011124A90140585F4FE0910601F091D7
S11316600701E20FF31F10822F5F3F4F2417350746
S1131670A1F721E030E0C90102C0880F991FCA9583
S1131680E2F79091CE02892B8093CE02CF910895F8
S1131690EF92FF921F93CF93DF93D82FC62F693019
S11316A018F0C8506C2FF4DFCC2309F45CC0A0916F
S11316B00601B091070120E8D29FA00DB11D1124AD
S11316C08DE293E0FC012D9121932E2F281B2C17E2
S11316D0D0F38C2F90E060E870E0681B790B16164D
S11316E017060CF444C018C040910601509107013C
S11316F02E0D3F1DFA01E20FF31F280F391F420F71
S1131700531FDA012C9120831F5F212F30E026170D
S1131710370754F3CC23D1F0B0E8DB9F90011124B8
S1131720281B390B4DE253E0FA012E5A3240C9010D
S11317308E0F9F1FA0910601B0910701A80FB91F3A
S113174081918C938E2F841B8C1788F381E090E019
S113175002C0880F991FDA95E2F7D091CE028D2B43
S11317608093CE020CC060E870E080E090E020E856
S1131770D29F7001112420E030E010E0B5CFDF915A
S1131780CF911F91FF90EF900895CF92DF92EF9247
S1131790FF920F931F93CF93DF93C42FE22EF12C6C
S11317A0062F10E0C82ED12C9701A601B801C6015E
S11317B0E3DDD0E09801AE01B801C601DDDD97019B
S11317C0AE01B701C601D8DD9701AE01B801CE0163
S11317D0D3DDDF91CF911F910F91FF90EF90DF90B8
S11317E0CF9008958FB9779BFECF0895C49808953C
S11317F0C49A089587B3806B87BBBE986C9A6E9A1F
S1131800709AF6CF0895282F89B7816089BF83B76E
S11318108D6083BF30E040E050E060EC72E180E036
S113182090E057D221BF81E08093390308958091DD
S1131830390308951092390308951F920F920FB639
S11318400F9211248F9381E0809339038F910F902D
S11318500FBE0F901F9018955D9BFECF8CB9089515
S11318605F9BFECF8CB190E0089590BD89B988E16B
S11318708AB960E37CE08CE29CE084C2089550580D
S1131880BB27AA270ED075C166D130F06BD120F0EA
S113189031F49F3F11F41EF45BC10EF4E095E7FBB5
S11318A051C1E92F77D180F3BA1762077307840710
S11318B0950718F071F49EF58FC10EF4E0950B2E88
S11318C0BA2FA02D0B01B90190010C01CA01A0018E
S11318D01124FF27591B99F0593F50F4503E68F1E9
S11318E01A16F040A22F232F342F4427585FF3CF2A
S11318F0469537952795A795F0405395C9F77EF4FB
S11319001F16BA0B620B730B840BBAF09150A1F043
S1131910FF0FBB1F661F771F881FC2F70EC0BA0FC9
S1131920621F731F841F48F4879577956795B79551
S1131930F7959E3F08F0B3CF9395880F08F0992749
S1131940EE0F979587950895D9D008F481E008950E
S11319500CD00FC107D140F0FED030F021F45F3F2E
S113196019F0F0C0511139C1F3C014D198F399237F
S1131970C9F35523B1F3951B550BBB27AA2762174F
S11319807307840738F09F5F5F4F220F331F441F94
S1131990AA1FA9F333D00E2E3AF0E0E830D09150CC
S11319A05040E695001CCAF729D0FE2F27D0660FB9
S11319B0771F881FBB1F261737074807AB07B0E8F8
S11319C009F0BB0B802DBF01FF2793585F4F2AF00E
S11319D09E3F510568F0B6C000C15F3FECF3983EEE
S11319E0DCF3869577956795B795F7959F5FC9F76B
S11319F0880F911D9695879597F90895E1E0660FF4
S1131A00771F881FBB1F621773078407BA0720F06C
S1131A10621B730B840BBA0BEE1F88F7E0950895D5
S1131A2004D06894B111D9C00895BCD088F09F57F0
S1131A3090F0B92F9927B751A0F0D1F0660F771F16
S1131A40881F991F1AF0BA95C9F712C0B13081F0F6
S1131A50C3D0B1E00895C0C0672F782F8827B85F3E
S1131A6039F0B93FCCF3869577956795B395D9F757
S1131A703EF490958095709561957F4F8F4F9F4F61
S1131A800895E89409C097FB3EF49095809570956D
S1131A9061957F4F8F4F9F4F9923A9F0F92F96E9B6
S1131AA0BB279395F695879577956795B795F1112B
S1131AB0F8CFFAF4BB0F11F460FF1BC06F5F7F4FC8
S1131AC08F4F9F4F16C0882311F096E911C07723DA
S1131AD021F09EE8872F762F05C0662371F096E8E3
S1131AE0862F70E060E02AF09A95660F771F881FB2
S1131AF0DAF7880F9695879597F90895990F000856
S1131B00550FAA0BE0E8FEEF16161706E807F907CB
S1131B10C0F012161306E407F50798F0621B730B66
S1131B20840B950B39F40A2661F0232B242B252BE7
S1131B3021F408950A2609F4A140A6958FEF811D8A
S1131B40811D089597F99F6780E870E060E008952B
S1131B509FEF80EC089500240A94161617061806C1
S1131B600906089500240A9412161306140605069D
S1131B700895092E0394000C11F4882352F0BB0F2E
S1131B8040F4BF2B11F460FF04C06F5F7F4F8F4F91
S1131B909F4F089557FD9058440F551F59F05F3FCC
S1131BA071F04795880F97FB991F61F09F3F79F07B
S1131BB087950895121613061406551FF2CF4695FD
S1131BC0F1DF08C0161617061806991FF1CF86957F
S1131BD07105610508940895E894BB276627772763
S1131BE0CB0197F908950BD0C4CFB5DF28F0BADF45
S1131BF018F0952309F0A6CFABCF1124EECFCADF9E
S1131C00A0F3959FD1F3950F50E0551F629FF0010B
S1131C10729FBB27F00DB11D639FAA27F00DB11D64
S1131C20AA1F649F6627B00DA11D661F829F2227ED
S1131C30B00DA11D621F739FB00DA11D621F839F74
S1131C40A00D611D221F749F3327A00D611D231F4A
S1131C50849F600D211D822F762F6A2F11249F5798
S1131C6050408AF0E1F088234AF0EE0FFF1FBB1FBB
S1131C70661F771F881F91505040A9F79E3F51055A
S1131C8070F060CFAACF5F3FECF3983EDCF386950B
S1131C9077956795B795F795E7959F5FC1F7FE2B05
S1131CA0880F911D9695879597F9089597FB072EB0
S1131CB016F4009406D077FD08D027D007FC05D091
S1131CC03EF4909581959F4F0895709561957F4F4F
S1131CD00895052E97FB16F400940FD057FD05D0F8
S1131CE028D007FC02D046F408C0509540953095A2
S1131CF021953F4F4F4F5F4F089590958095709574
S1131D0061957F4F8F4F9F4F0895AA1BBB1B51E1D5
S1131D1007C0AA1FBB1FA617B70710F0A61BB70B57
S1131D20881F991F5A95A9F780959095BC01CD01FC
S1131D300895A1E21A2EAA1BBB1BFD010DC0AA1F08
S1131D40BB1FEE1FFF1FA217B307E407F50720F020
S1131D50A21BB30BE40BF50B661F771F881F991F9B
S1131D601A9469F760957095809590959B01AC01E4
S1131D70BD01CF010895FB01DC0105900D92002007
S1131D80E1F708950F931F93CF93DF93EC018B0139
S1131D90009731F46115710519F480E090E037C0C3
S1131DA06EE070E081E090E00BD2FC010097A9F3B3
S1131DB080E883830115110571F01387028781E898
S1131DC0838380913A0390913B03892B21F4F09310
S1131DD03B03E0933A032097C9F0D187C0878381FE
S1131DE08260838380913C0390913D03892B71F43D
S1131DF0F0933D03E0933C0380913E0390913F03B5
S1131E00892B21F4F0933F03E0933E03CF01DF914C
S1131E10CF911F910F910895A0E0B0E0E1E1FFE0C0
S1131E20CDC3FE01359661917191AF0180913C0360
S1131E3090913D0302D0E2E0DDC3ACE0B0E0E2E229
S1131E40FFE0ACC37C016B018A01FC01178216829E
S1131E50838181FFB0C1CE0101964C01F7019381CA
S1131E60F60193FD859193FF81916F01882309F415
S1131E709EC1853239F493FD859193FF81916F0161
S1131E80853221F4B70190E0F9D2E8CF512C312CFE
S1131E9020E02032A0F48B3269F030F4803259F023
S1131EA0833269F420612CC08D3239F0803339F4E7
S1131EB0216026C02260246023C0286021C027FD41
S1131EC027C030ED380F3A3078F426FF06C0FAE028
S1131ED05F9E300D1124532E13C08AE0389E300DBE
S1131EE01124332E20620CC08E3221F426FD5FC1F2
S1131EF0206406C08C3611F4206802C0883641F490
S1131F00F60193FD859193FF81916F018111C1CFFA
S1131F10982F9F7D9554933028F40C5F1F4FFFE357
S1131F20F9830DC0833631F0833771F0833509F0BE
S1131F3057C021C0F801808189830E5F1F4F44245C
S1131F404394512C540114C03801F2E06F0E711CFB
S1131F50F801A080B18026FF03C0652D70E002C0A7
S1131F606FEF7FEFC5012C877ED22C0183012C8576
S1131F702F77222E16C03801F2E06F0E711CF80183
S1131F80A080B18026FF03C0652D70E002C06FEF12
S1131F907FEFC5012C8755D22C012C852068222E79
S1131FA0830123FC19C0832D90E048165906A0F440
S1131FB0B70180E290E062D23A94F5CFF50127FCB4
S1131FC0859127FE81915F01B70190E057D23110CE
S1131FD03A94F1E04F1A51084114510479F7DEC0E4
S1131FE0843611F0893631F5F80127FF07C0608186
S1131FF07181828193810C5F1F4F08C06081718160
S1132000882777FD8095982F0E5F1F4F2F76B22E6D
S113201097FF09C090958095709561957F4F8F4F7C
S11320209F4F2068B22E2AE030E0A40159D2A82E96
S1132030A81843C0853729F42F7EB22E2AE030E059
S113204025C0F22FF97FBF2E8F36C1F018F48835E2
S113205079F0ADC0803719F0883721F0A8C02F2F50
S11320602061B22EB4FE0DC08B2D8460B82E09C041
S113207024FF0AC09F2F9660B92E06C028E030E0E6
S113208005C020E130E002C020E132E0F801B7FEF3
S113209007C060817181828193810C5F1F4F06C0EC
S11320A06081718180E090E00E5F1F4FA40118D21F
S11320B0A82EA818FB2DFF77BF2EB6FE0BC02B2D24
S11320C02E7FA51450F4B4FE0AC0B2FC08C02B2D18
S11320D02E7E05C07A2C2B2D03C07A2C01C0752CC2
S11320E024FF0DC0FE01EA0DF11D8081803311F43F
S11320F0297E09C022FF06C07394739404C0822F02
S1132100867809F0739423FD12C020FF06C05A2C70
S1132110731418F4530C5718732C731460F4B70128
S113212080E290E02C87AAD173942C85F6CF7314A7
S113213010F4371801C0312C24FF11C0B70180E31B
S113214090E02C879BD12C8522FF16C021FF03C071
S113215088E590E002C088E790E0B7010CC0822FC8
S1132160867851F021FD02C080E201C08BE227FD98
S11321708DE2B70190E082D1A51430F4B70180E379
S113218090E07CD15A94F8CFAA94F401EA0DF11DA1
S11321908081B70190E072D1A110F6CF332009F409
S11321A05DCEB70180E290E069D13A94F7CFF701B0
S11321B08681978102C08FEF9FEF2C96E2E10AC2DD
S11321C00F931F93CF93DF93869F8001879F100DFA
S11321D0969F100D1124C8010DD0EC01009721F039
S11321E0A80160E070E038D1CE01DF91CF911F915A
S11321F00F910895CF93DF938230910510F482E01C
S113220090E0E0914203F091430320E030E0A0E04D
S1132210B0E0309739F14081518148175907B8F03F
S11322204817590771F482819381109729F0139606
S11322309C938E9312972CC09093430380934203F4
S113224027C02115310531F04217530718F0A901B1
S1132250DB0101C0EF019A01BD01DF010280F381BE
S1132260E02DD7CF21153105F9F0281B390B243087
S1132270310580F48A819B816115710521F0FB0190
S11322809383828304C09093430380934203FE01AB
S1132290329644C0FE01E20FF31F819391932250C2
S11322A03109398328833AC0209140033091410396
S11322B0232B41F420910201309103013093410317
S11322C02093400320910001309101012115310533
S11322D041F42DB73EB74091040150910501241BF0
S11322E0350BE0914003F0914103E217F307A0F4AA
S11322F02E1B3F0B2817390778F0AC014E5F5F4F58
S11323002417350748F04E0F5F1F50934103409345
S113231040038193919302C0E0E0F0E0CF01DF91AC
S1132320CF910895CF93DF93009709F487C0FC0100
S1132330329713821282C0914203D09143032097B3
S113234081F420813181280F391F809140039091BD
S113235041038217930779F5F0934103E093400317
S11323606DC0DE0120E030E0AE17BF0750F41296D6
S11323704D915C9113979D014115510509F1DA01C5
S1132380F3CFB383A28340815181840F951F8A17B1
S11323909B0771F48D919C911197840F951F029660
S11323A09183808312968D919C911397938382835A
S11323B02115310529F4F0934303E09342033EC011
S11323C0D9011396FC93EE9312974D915D91A40F4E
S11323D0B51FEA17FB0779F480819181840F951F5B
S11323E00296D90111969C938E93828193811396C0
S11323F09C938E931297E0E0F0E08A819B81009792
S113240019F0FE01EC01F9CFCE0102962881398141
S1132410820F931F209140033091410328173907FD
S113242069F4309729F4109243031092420302C0D6
S113243013821282D0934103C0934003DF91CF9162
S11324400895FC010590615070400110D8F7809503
S113245090958E0F9F1F0895DC0101C06D9341502C
S11324605040E0F70895FC01615070400190011064
S1132470D8F7809590958E0F9F1F08950F931F9303
S1132480CF93DF93182F092FEB018B8181FD03C0BC
S11324908FEF9FEF20C082FF10C04E815F812C819F
S11324A03D81421753077CF4E881F9819F012F5F36
S11324B03F4F39832883108306C0E885F985812F2F
S11324C00995892B29F72E813F812F5F3F4F3F8349
S11324D02E83812F902FDF91CF911F910F9108951B
S11324E0FA01AA27283051F1203181F1E8946F9341
S11324F06E7F6E5F7F4F8F4F9F4FAF4FB1E03ED0E7
S1132500B4E03CD0670F781F891F9A1FA11D680F84
S1132510791F8A1F911DA11D6A0F711D811D911DB7
S1132520A11D20D009F468943F912AE0269F11242C
S11325303019305D3193DEF6CF010895462F477090
S1132540405D4193B3E00FD0C9F7F6CF462F4F70EB
S1132550405D4A3318F0495D31FD4052419302D049
S1132560A9F7EACFB4E0A6959795879577956795EF
S1132570BA95C9F700976105710508959B01AC01EF
S11325800A2E06945795479537952795BA95C9F716
S1132590620F731F841F951FA01D08952F923F92F1
S11325A04F925F926F927F928F929F92AF92BF925F
S11325B0CF92DF92EF92FF920F931F93CF93DF930B
S11325C0CDB7DEB7CA1BDB0B0FB6F894DEBF0FBE68
S11325D0CDBF09942A88398848885F846E847D84B5
S11325E08C849B84AA84B984C884DF80EE80FD80B7
S11325F00C811B81AA81B981CE0FD11D0FB6F8942D
S1112600DEBF0FBECDBFED010895F894FFCFED
S113260E00004403200000180012001043616C699E
S113261E62726174696F6E2076616C7565733A20AF
S113262E0963616C5F583A2025690963616C5F59CF
S113263E3A25690A005265666572656E63652056B1
S113264E616C7565733A200958202569095920254E
S113265E69094C2025690952202569090A00537419
S113266E617274696E67205352414D2074657374A0
S113267E2E2E2E0057726974652070686173652062
S113268E6572726F723A206578745F72616D5B2544
S113269E34645D203D2025303258202873686F75D0
S11326AE6C642062652025303258290A0052657404
S11326BE72696576616C20706861736520657272EB
S11326CE6F723A206578745F72616D5B2534645D58
S11326DE203D2025303258202873686F756C642095
S11326EE62652025303258290A005352414D207418
S11326FE65737420636F6D706C657465642077699F
S113270E74680A253464206572726F727320696E60
S113271E20777269746520706861736520616E64D8
S113272E0A253464206572726F727309696E2072A1
S113273E657472696576616C2070686173650A0AE6
S113274E0031333A33343A3136004F637420323524
S113275E2032303137006C366432004C4F414449DC
S113276E4E47206731375F25732025732025730A62
S113277E494E495449414C495A494E472E2E2E0A28
S113278E0A55415254207375636365737366756C91
S113279E6C7920696E697469616C697A65640A0A78
S11327AE00202D204259474745524E202D204731B7
S10527BE3700DE
S9030000FC
